:020000040800F2
:1000000040050020E5360008F1320008F332000810
:10001000F5320008F7320008F9320008000000004D
:10002000000000000000000000000000FB3200089B
:10003000FD32000800000000FF3200080133000814
:1000400025370008293700082D3700083137000808
:1000500035370008033300084733000873330008BE
:10006000D7330008493700084D37000851370008DA
:1000700055370008593700085D3700086137000818
:1000800065370008693700086D37000871370008C8
:1000900075370008793700087D3700088137000878
:1000A00085370008893700088D3700089137000828
:1000B00095370008993700089D370008A1370008D8
:1000C000A5370008A9370008AD370008B137000888
:1000D000B5370008B9370008BD370008C137000838
:1000E0003D340008C9370008CD3700080000000083
:1000F0000000000000000000000000000000000000
:100100000000000000000000D1370008D5370008CB
:10011000D9370008DD370008E1370008E537000867
:10012000E9370008ED370008F1370008F537000817
:10013000F9370008FD3700080138000805380008C5
:10014000093800080D380008113800081538000873
:1001500001B40098002803D00098401E0090F8E7F2
:1001600001B0704780B52021DFF8DC0B01F01EFAEA
:1001700042F21070FFF7ECFF2021DFF8CC0B01F00A
:1001800012FA01BD38B504000D00290089B2200023
:1001900001F0FCF9002805D0290089B2200001F007
:1001A00005FA04E0290089B2200001F0FCF931BD14
:1001B00080B50121082001F0E6FB012141F21D007C
:1001C00001F0D2FBDFF8840B08210180DFF87C0B03
:1001D00003218170DFF8740B1021C170DFF86C1BF4
:1001E000DFF8640B01F02AF90821DFF85C0B01F05D
:1001F000DAF9DFF8580B02210180DFF8500B0321F8
:100200008170DFF8480B1021C170DFF8401BDFF868
:10021000380B01F013F9DFF8340B20210180DFF8EF
:100220002C0B02218170DFF8240B1021C170DFF844
:100230001C1BDFF8140B01F001F9DFF8100B04218F
:100240000180DFF8080B03218170DFF8000B10211B
:10025000C170DFF8F81ADFF8F00A01F0EFF8DFF804
:10026000EC0A01210180DFF8E40A03218170DFF844
:10027000DC0A1021C170DFF8D41ADFF8CC0A01F0D3
:10028000DDF8DFF8C80A02210180DFF8C00A022188
:100290008170DFF8B80A4821C170DFF8B01ADFF8C2
:1002A000B00A01F0CBF8DFF8A40A04210180DFF8DE
:1002B0009C0A02218170DFF8940A4821C170DFF89E
:1002C0008C1ADFF88C0A01F0B9F8DFF8800A0121F6
:1002D0000180DFF8780A02218170DFF8700A482176
:1002E000C170DFF8681ADFF8680A01F0A7F8DFF8D4
:1002F0005C0A10210180DFF8540A02218170DFF8C6
:100300004C0A1021C170DFF8441ADFF83C0A01F0F2
:1003100095F81021DFF8300A01F045F9DFF82C0AD2
:1003200020210180DFF8240A03218170DFF81C0AF4
:100330001821C170DFF8141ADFF8140A01F07EF8F2
:10034000DFF8080A80210180DFF8000A03218170AC
:10035000DFF8F8091821C170DFF8F019DFF8F009AB
:1003600001F06CF8DFF8E40910210180DFF8DC0906
:1003700003218170DFF8D4091021C170DFF8CC1996
:10038000DFF8CC0901F05AF8DFF8C00940210180FC
:10039000DFF8B80903218170DFF8B0094821C17086
:1003A000DFF8A819DFF8A80901F048F8DFF89C0980
:1003B0004FF400610180DFF8940903218170DFF8B8
:1003C0008C094821C170DFF88419DFF8880901F031
:1003D00035F8DFF878094FF480610180DFF86C09A7
:1003E00003218170DFF864094821C170DFF85C19CE
:1003F000DFF8600901F022F8DFF8500908210180D8
:10040000DFF8480903218170DFF840091821C17025
:10041000DFF83819DFF8380901F010F8DFF838098B
:1004200000210180DFF830094FF482714180DFF84C
:10043000280900218180DFF820090221C180DFF82E
:10044000180901210181DFF810094FF40071418181
:10045000DFF8040918218181DFF8FC080021C1813F
:10046000DFF8F40807210182DFF8EC18DFF8800DCF
:1004700001F0F4FA0121DFF8780D01F00FFB00F034
:1004800001F801BD80B508208DF8000001208DF82D
:10049000010000208DF8020001208DF8030000A863
:1004A00001F01AFB28208DF8000001208DF80100D2
:1004B00000208DF8020001208DF8030000A801F053
:1004C0000BFB06208DF8000001208DF801000020B4
:1004D0008DF8020001208DF8030000A801F0FCFA5D
:1004E00007208DF8000001208DF8010000208DF814
:1004F000020001208DF8030000A801F0EDFA01BD13
:1005000080B55FF48010FFF723FE0221DFF8380882
:1005100001F049F85FF48010FFF71AFE0421DFF8BC
:10052000280801F040F85FF48010FFF711FE012168
:10053000DFF8140801F037F85FF48010FFF708FEC9
:100540000221DFF8040801F031F80421DFF8F80790
:1005500001F02CF80121DFF8F00701F027F85FF433
:100560008010FFF7F5FD01BD00B583B00A21012021
:1005700001F01FF84FF48060009000208DF8040017
:1005800010208DF8050001208DF8060000A801F06C
:10059000DFFA4FF4806001F033FB07BD00B583B094
:1005A0000B21012001F005F84FF4006000900020BD
:1005B0008DF8040010208DF8050001208DF806004C
:1005C00000A801F0C5FA4FF4006001F019FB07BD67
:1005D00000B583B04FF40060009000208DF8040057
:1005E00000208DF8060000A801F0B2FA07BD00B5A2
:1005F00083B00121002000F0DCFF0221002000F088
:10060000D8FF0220009000208DF8040008208DF80B
:10061000050001208DF8060000A801F099FA0220DB
:1006200001F0EEFA0420009000208DF8040008206C
:100630008DF8050001208DF8060000A801F088FA69
:10064000042001F0DDFA07BD00B583B000210020D1
:1006500000F0AFFF0120009000208DF80400102072
:100660008DF8050001208DF8060000A801F070FA51
:10067000012001F0C5FA07BD10B58CB0040007A831
:1006800001F0A2F804A801F04AFB0798DFF8E41C87
:10069000B0FBF1F0401EADF81000601EADF8140084
:1006A00004A9DFF8500D01F0B9FA00A801F043FBEE
:1006B0006020ADF800000120ADF80200A4B20220D5
:1006C00094FBF0F0ADF8060000A9DFF8280D01F06A
:1006D000EFFA0121DFF81C0D01F03EFB0CB010BD5C
:1006E00080B50021DFF80C0D01F036FB01BD0021C3
:1006F000016000218180002181608A2101828A219C
:100700004182412181820021C18227210183292147
:1007100081762921C17629210177292141774FF45A
:100720008161C183192180F82010292180F82110CE
:10073000292180F82210002180F82310402180F820
:100740002610082180F82510072180F82710FF21A6
:1007500080F8281042F688614185704710B5040082
:100760002168012000F05DF8A188022000F059F80E
:10077000A168032000F055F8218A052000F051F807
:10078000618A062000F04DF8A18A072000F049F8A0
:10079000E18A082000F045F8218B152000F041F88F
:1007A000A17E092000F03DF8E17E0A2000F039F832
:1007B000217F0B2000F035F8617F0C2000F031F82C
:1007C000E18B0D2000F02DF894F820100E2000F0A1
:1007D00028F894F821100F2000F023F894F8221044
:1007E000102000F01EF894F82310112000F019F8E2
:1007F00094F82610142000F014F894F82510132013
:1008000000F00FF894F82710162000F00AF894F87A
:100810002810172000F005F8618D182000F001F86D
:1008200010BD38B504000D002000C0B200F022F960
:10083000E4B22000401E0ED0401E10D0401E0AD050
:10084000801E03280BD9083809D0083807D0C01EED
:10085000012804D907E0280CC0B200F00BF9280ADF
:10086000C0B200F007F92800C0B200F003F931BDB2
:1008700070B504000025002654F02000C0B200F03E
:10088000F9F805002D062E43E4B22000401E0FD0DB
:10089000401E13D0401E01280AD9801E03280DD9FE
:1008A00008380BD0083809D0C01E012806D90BE043
:1008B000002000F0DFF805002D042E43002000F09A
:1008C000D9F805002D022E43002000F0D3F80500D2
:1008D0002E43300070BD38B504000D0054F05000B8
:1008E000C0B200F0C7F8280CC0B200F0C3F8280A64
:1008F000C0B200F0BFF82800C0B200F0BBF831BDB4
:1009000010B5040054F05800C0B200F0B3F810BDA8
:1009100038B504000D0054F04000C0B200F0AAF851
:10092000280CC0B200F0A6F8280AC0B200F0A2F865
:100930002800C0B200F09EF831BD10B50400602060
:1009400000F098F8200CC0B200F094F8200AC0B271
:1009500000F090F82000C0B200F08CF810BD38B55F
:1009600004000D0054F06800C0B200F083F8280CB9
:10097000C0B200F07FF8280AC0B200F07BF828006F
:10098000C0B200F077F831BD70B504000D0016005C
:1009900055EA040050F08200C0B200F06BF8300C51
:1009A000C0B200F067F8300AC0B200F063F830005F
:1009B000C0B200F05FF870BD38B504000D0055EA14
:1009C000040050F09200C0B200F054F831BD80B580
:1009D000702000F04FF801BD80B5782000F04AF893
:1009E00001BD80B5D82000F045F801BD80B5B0202C
:1009F00000F040F801BD80B5A02000F03BF801BD3B
:100A000080B5A82000F036F801BD38B500240025D7
:100A1000D02000F02FF8002000F02CF80400240271
:100A20002543002000F026F804002543280080B26A
:100A300032BD80B54FF40061C64800F09AFD002831
:100A400001D1012000E0002002BD80B5FFF7DDFFED
:100A5000800701D4012000E0002002BD80B54FF4E2
:100A60008061BC4800F085FD002801D1012000E034
:100A7000002002BD10B504001021B54800F096FD1D
:100A8000E4B2210089B2DFF8A00901F015F8802155
:100A9000DFF8940901F014F80028F8D11021AC48CF
:100AA00000F081FDDFF8800901F008F8C0B210BD48
:100AB000F8B504000D0016001021A54800F076FDE1
:100AC00000200700F6B2B74215D2217889B2DFF8CC
:100AD000200700F0F1FF8021DFF8140700F0F0FF9D
:100AE0000028F8D1DFF8080700F0E8FF2870641C40
:100AF0006D1C7F1CE6E71021954800F054FDF1BD08
:100B00002DE9F04104000D0016005FF00008002000
:100B10000700E4B2A7425AD22878401E0FD0401EE8
:100B200020D0401E01280AD9801E03281AD908386F
:100B300018D0083816D0C01E012813D929E0DFF8D4
:100B4000EC0829783954DFF8E40838183168090CC2
:100B50004170DFF8D80838183168090A817003201D
:100B600080462BE0DFF8C40800213954DFF8BC08C8
:100B7000381829784170DFF8B40838183168090A44
:100B800081705FFA88F8B8F1020F01DA022080461E
:100B900014E0DFF8980800213954DFF8900838187D
:100BA00000214170DFF884083818297881705FFAD5
:100BB00088F8B8F1000F01D101208046DFF86C08F9
:100BC00038183168C1706D1C361D7F1CA1E75FFAB3
:100BD00088F8D8F103000700042F0BD22200D2B20C
:100BE000DFF84C083918DFF844083818FFF760FFC1
:100BF0007F1CF1E7BDE8F0812DE9F04104000D0014
:100C000016005FF0000800200700E4B2A7426BD294
:100C10002878401E0FD0401E20D0401E01280AD93F
:100C2000801E03281AD9083818D0083816D0C01EDC
:100C3000012813D92AE0DFF8F407297851F02001C0
:100C40003954DFF8E807381800214170DFF8DC0775
:100C5000381800218170032080462EE0DFF8CC0791
:100C600000213954DFF8C4073818297851F02001E1
:100C70004170DFF8B8073818002181705FFA88F8F2
:100C8000B8F1020F01DA0220804616E0DFF89C0777
:100C900000213954DFF89407381800214170DFF83B
:100CA0008C073818297851F0200181705FFA88F894
:100CB000B8F1000F01D101208046DFF87007381825
:100CC0000021C170DFF86807381800214170DFF893
:100CD0006007381800218170DFF8540738180021A8
:100CE000C1706D1C7F1C90E75FFA88F8D8F1030093
:100CF0000700042F0BD22200D2B2DFF834073918D4
:100D0000DFF828073818FFF7D3FE7F1CF1E7002033
:100D10000700E4B2A74213D2DFF81407381840786E
:100D2000DFF80C1779188978090251EA0040DFF8DA
:100D300000177918C97808433060361D7F1CE8E732
:100D4000BDE8F08100000000001001400401002017
:100D500000080140000C0140F000002070B50400C4
:100D60000D0000200600E4B2A6420DD2DFF8C40652
:100D700001213154302000FB06500068DFF8B8161E
:100D800041F82600761CEEE7DFF8AC26DFF8A41663
:100D90002000C0B2FFF7B4FE00200600E4B2A64275
:100DA0000DD2DFF8900602213154302000FB0650AE
:100DB0008088DFF8841641F82600761CEEE7DFF81D
:100DC0007826DFF870162000C0B2FFF799FE0020E9
:100DD0000600E4B2A6420DD2DFF8580603213154D2
:100DE000302000FB06508068DFF84C1641F82600E2
:100DF000761CEEE7DFF84026DFF838162000C0B298
:100E0000FFF77EFE00200600E4B2A6420DD2DFF816
:100E1000240605213154302000FB0650008ADFF8FB
:100E2000181641F82600761CEEE7DFF80C26DFF8EE
:100E300004162000C0B2FFF763FE00200600E4B2F3
:100E4000A6420DD2DFF8EC0506213154302000FB1C
:100E50000650408ADFF8E01541F82600761CEEE7E0
:100E6000DFF8D425DFF8CC152000C0B2FFF748FE2C
:100E700000200600E4B2A6420DD2DFF8B805072133
:100E80003154302000FB0650808ADFF8AC1541F861
:100E90002600761CEEE7DFF8A025DFF89815200085
:100EA000C0B2FFF72DFE00200600E4B2A6420DD22C
:100EB000DFF8800508213154302000FB0650C08A3D
:100EC000DFF8741541F82600761CEEE7DFF8682598
:100ED000DFF860152000C0B2FFF712FE0020060008
:100EE000E4B2A6420DD2DFF84C0515213154302072
:100EF00000FB0650008BDFF8401541F82600761CF9
:100F0000EEE7DFF83425DFF82C152000C0B2FFF73C
:100F1000F7FD00200600E4B2A6420DD2DFF814056A
:100F200009213154302000FB0650807EDFF808157F
:100F300041F82600761CEEE7DFF8FC24DFF8F41415
:100F40002000C0B2FFF7DCFD00200600E4B2A6429C
:100F50000DD2DFF8E0040A213154302000FB0650A6
:100F6000C07EDFF8D41441F82600761CEEE7DFF8E7
:100F7000C824DFF8C0142000C0B2FFF7C1FD002074
:100F80000600E4B2A6420DD2DFF8A8040B213154CA
:100F9000302000FB0650007FDFF89C1441F826004B
:100FA000761CEEE7DFF89024DFF888142000C0B24A
:100FB000FFF7A6FD00200600E4B2A6420DD2DFF83E
:100FC00074040C213154302000FB0650407FDFF8C0
:100FD000681441F82600761CEEE7DFF85C24DFF8A1
:100FE00054142000C0B2FFF78BFD00200600E4B2CD
:100FF000A6420DD2DFF83C040D213154302000FB15
:101000000650C08BDFF8301441F82600761CEEE75E
:10101000DFF82424DFF81C142000C0B2FFF770FDB5
:1010200000200600E4B2A6420ED2DFF808040E212A
:101030003154302000FB065090F82000DFF8F81300
:1010400041F82600761CEDE7DFF8EC23DFF8E41327
:101050002000C0B2FFF754FD00200600E4B2A64213
:101060000ED2DFF8D0030F213154302000FB0650A0
:1010700090F82100DFF8C01341F82600761CEDE758
:10108000DFF8B423DFF8AC132000C0B2FFF738FD5F
:1010900000200600E4B2A6420ED2DFF89803102129
:1010A0003154302000FB065090F82200DFF88813FE
:1010B00041F82600761CEDE7DFF87C23DFF8741397
:1010C0002000C0B2FFF71CFD00200600E4B2A642DB
:1010D0000ED2DFF8600311213154302000FB06509E
:1010E00090F82300DFF8501341F82600761CEDE756
:1010F000DFF84423DFF83C132000C0B2FFF700FD07
:1011000000200600E4B2A6420CD2CA481421315491
:10111000302000FB065090F82600C74941F8260011
:10112000761CEFE7C44AC3492000C0B2FFF7E8FCD1
:1011300000200600E4B2A6420CD2BE48132131546E
:10114000302000FB065090F82500BB4941F82600EE
:10115000761CEFE7B84AB7492000C0B2FFF7D0FCD1
:1011600000200600E4B2A6420CD2B2481621315447
:10117000302000FB065090F82700AF4941F82600C8
:10118000761CEFE7AC4AAB492000C0B2FFF7B8FCD1
:1011900000200600E4B2A6420CD2A6481721315422
:1011A000302000FB065090F82800A34941F82600A3
:1011B000761CEFE7A04A9F492000C0B2FFF7A0FCD1
:1011C00000200600E4B2A6420BD29A4818213154FE
:1011D000302000FB0650408D974941F82600761CD0
:1011E000F0E7954A93492000C0B2FFF789FC70BD33
:1011F00000300140F8B504000D0016001F003B0050
:1012000056F04002D2B22100C9B22800C0B200F0AC
:1012100011F8F1BDF8B504000D0016001F003B00E9
:1012200056F05002D2B22900C9B22000C0B200F07C
:1012300001F8F1BD2DE9F04104000D0016001F007A
:1012400000208046EDB2A8452AD2E4B2A04511D1D3
:10125000764808F80060754818EB0000390C4170BA
:10126000724818EB0000390A8170704818EB0000D2
:10127000C77012E06D48002108F800106B4818EBA9
:10128000000000214170694818EB000000218170C6
:10129000664818EB00000021C17018F10108D1E781
:1012A00000208046B8F1040F0CD22A00D2B2604868
:1012B00018EB00015D4818EB0000FFF7F9FB18F18F
:1012C0000108EFE7BDE8F0812DE9F04104000D00D1
:1012D00016005FF0000800200700E4B2A74236D2F3
:1012E000287810F0FA00C0B2402809D0502807D062
:1012F000602805D0682803D0822801D08A2813D11D
:101300004A4829783954494838183168090C4170DD
:10131000464838183168090A8170444838183168DD
:10132000C170032080460EE04048002139543F48F8
:101330003818002141703D483818002181703B4821
:1013400038182978C1706D1C361D7F1CC5E75FFAFF
:1013500088F8D8F103000700042F09D22200D2B286
:101360003348391831483818FFF7A2FB7F1CF3E7E0
:10137000BDE8F08140420F0070B504000D00002070
:101380000600E4B2A64214D22848D021315427489E
:101390003018002141702548301800218170244800
:1013A0003018002141702248301800218170761CCD
:1013B000E7E700200600032E09D22200D2B21C4823
:1013C00031181A483018FFF773FB761CF3E700203A
:1013D0000600E4B2A6420BD21548301840781449F2
:1013E0007118897851EA002028602D1D761CF0E7DD
:1013F00070BD0000000C004070B504000E492000D4
:10140000C0B2FFF7B9FF00200500E4B2A54205D243
:10141000094850F8250006436D1CF6E7B00701D4D3
:10142000012000E0002070BD0030014010010020CC
:10143000140100203901002018010020F0B5002718
:101440000022002300240025002691F803C01CF090
:101450000F0C674691F803C05FEACC6C03D591F896
:1014600002C05CEA070791F800C05FEA0C6C3AD052
:10147000D0F800C065465FF0000C6346082B31D2FF
:101480005FF0010C1CFA03FC6446B1F800C014EADA
:101490000C0C6246A24223D15FEA830C64465FF0E3
:1014A0000F0C1CFA04FC6646B54317FA04FC5CEA10
:1014B000050591F803C0BCF1280F06D15FF0010CBF
:1014C0001CFA03FCC0F814C00AE091F803C0BCF198
:1014D000480F05D15FF0010C1CFA03FCC0F810C0E6
:1014E0005B1CCBE70560B1F800C0BCF1FF0F3FDD2E
:1014F000D0F804C065465FF0000C6346082B36D276
:101500005FF0010C13F1080E1CFA0EFC6446B1F8F2
:1015100000C014EA0C0C6246A24226D15FEA830C9A
:1015200064465FF00F0C1CFA04FC6646B54317FADC
:1015300004FC5CEA050591F803C0BCF1280F07D153
:101540005FF0010C13F1080E1CFA0EFCC0F814C079
:1015500091F803C0BCF1480F07D15FF0010C13F103
:10156000080E1CFA0EFCC0F810C05B1CC6E74560F4
:10157000F0BD02000020936889B20B4202D0012323
:10158000180001E000231800C0B2704702000020DC
:10159000D36889B20B4202D00123180001E0002376
:1015A0001800C0B2704789B20161704789B24161C9
:1015B000704730B400220F2311F00304E4B2A400FA
:1015C000A3401A00C9B28B100E4C54F82330934339
:1015D000C9B28C100B4D45F82430C9B28B10094CA0
:1015E00054F82330C0B211F00304E4B2A40010FA9E
:1015F00004F42343C9B28C10024D45F8243030BCAA
:101600007047000008000140DFF80C04006850F04B
:101610000100DFF804140860DFF800040068DFF858
:1016200000140840DFF8F4130860DFF8EC030068EA
:10163000DFF8F0130840DFF8E0130860DFF8D803A4
:10164000006830F48020DFF8D0130860DFF8CC03A6
:10165000006830F4FE00DFF8C4130860DFF8B80358
:10166000006830F0A050DFF8B0130860DFF8B8036E
:101670005FF47F010160DFF8B4030021016070476F
:10168000DFF89413096831F48031DFF88C2311609E
:10169000DFF88413096831F48021DFF87C231160BE
:1016A0000100B1F5803F03D0B1F5802F09D011E0E2
:1016B000DFF86413096851F48031DFF85C231160AE
:1016C00008E0DFF85413096851F4A021DFF848233B
:1016D0001160FFE7704738B5002000900024002516
:1016E000312000F05FF905000098401C0090009840
:1016F000B0F5A06F02D0EDB2002DF1D0312000F096
:1017000051F9002802D00120040001E0002004006B
:101710002000C0B232BD0022DFF800331B681A007F
:1017200032F4741251EA00031A43DFF8F0321A60FF
:101730007047DFF8FC12C0B2086070470022DFF883
:10174000EC321B681A00DFF8EC321A4051EA000351
:101750001A43DFF8D8321A6070470021DFF8BC2244
:1017600012681100890889000143DFF8B022116076
:101770007047DFF8A802006810F00C0070470021E5
:10178000DFF898221268110031F0F0010143DFF810
:101790008C22116070470021DFF88022126811004E
:1017A00031F4E0610143DFF87422116070470021D9
:1017B000DFF868221268110031F4605151EAC0016B
:1017C000DFF8582211607047F0B500210022002395
:1017D00000240025002600275FF0000CDFF83CE223
:1017E000DEF800E01EF00C0E71468E46BEF1000FD2
:1017F00006D0BEF1040F08D0BEF1080F0AD062E097
:10180000DFF838E2C0F800E061E0DFF830E2C0F86D
:1018100000E05CE0DFF804E2DEF800E01EF4701E99
:101820007246DFF8F8E1DEF800E01EF4803E734611
:10183000920C0D2A01D0921C02E05FF0060E724657
:10184000002B06D1DFF8F8E10EFB02FEC0F800E045
:1018500038E0DFF8D8E1DEF800E01EF4803E75469F
:10186000DFF8C8E1DEF800E01EF00F0E1EF1010EF9
:101870007646002D08D1DFF8C4E1BEFBF6FE02FB80
:101880000EFEC0F800E01DE0DFF8A0E1DEF800E0A9
:10189000CEF3031E1EF1010E7746DFF890E1DEF86D
:1018A00000E0CEF3032E1EF1020EF446DFF88CE1C9
:1018B000BEFBF7FE0CFB0EFEBEFBF6FE02FB0EFEB1
:1018C000C0F800E003E0DFF874E1C0F800E0DFF802
:1018D0004CE1DEF800E01EF0F00E71460909DFF879
:1018E00064E111F80EE07446D0F800E03EFA04FE20
:1018F000C0F804E0DFF824E1DEF800E01EF4E06E5A
:101900007146090ADFF83CE111F80EE07446D0F8A0
:1019100004E03EFA04FEC0F808E0DFF800E1DEF87B
:1019200000E01EF4605E7146C90ADFF818E111F8A4
:101930000EE07446D0F804E03EFA04FEC0F80CE075
:10194000DFF8D8E0DEF800E01EF4404E7146890B67
:10195000DFF8F4E011F80EE07446D0F80CE0BEFBBE
:10196000F4FEC0F810E0F0BDC9B2002905D0374A36
:1019700012680243354B1A6004E0344A126882430D
:10198000324B1A607047C9B2002905D0304A12683C
:1019900002432F4B1A6004E02D4A126882432C4BFD
:1019A0001A60704710B40100002200230020C9B261
:1019B0004C09E4B22200012A03D1174C2468230009
:1019C00008E0022A03D11C4C2468230002E0214CC9
:1019D00024682300C9B211F01F04220033FA02F474
:1019E000E40702D50124200001E000242000C0B259
:1019F00010BC7047010000200B4A1268C9B20A42AD
:101A000002D00122100001E000221000C0B2704795
:101A10001149087070470000001002400410024095
:101A20000000FFF0FFFFF6FE081002402C100240FD
:101A300060004242F0FFFEFF2010024000127A00D8
:101A400000093D0000000020800000201810024026
:101A50001C100240241002400A10024010B4002260
:101A600003881A0012F441520B884C8823438C8857
:101A70002343CC8823430C8923434C8923438C89FB
:101A80002343CC8923431A430280838B4FF2FF7494
:101A9000234083830B8A038210BC7047C9B200299C
:101AA00004D0028852F04002028004E002884FF61F
:101AB000BF731A40028070478181704780897047E8
:101AC0000200002013890B4202D00123180001E01C
:101AD00000231800C0B27047F0B4002300210F2289
:101AE000C478002C20D0164C246814F4E064D4F59B
:101AF000E064240A2300D3F104042100DA4044788E
:101B00008C4023008478144023431B0104780D4D3E
:101B10006355047864110C4D0126077817F01F07F0
:101B2000BE4045F8246009E004786411074D0126A1
:101B3000077817F01F07BE4045F82460F0BC7047D7
:101B40000CED00E000E400E000E100E080E100E0F6
:101B500000212D4A11008279002A36D02A4A1268C3
:101B600003689A43284B1A60284A126803689A430C
:101B7000264B1A60027951180A6803681A430A60F2
:101B8000234A126803689A43214B1A60214A12685B
:101B900003689A431F4B1A604279102A0CD11C4AE1
:101BA000126803681A431A4B1A601A4A12680368CB
:101BB0001A43184B1A600EE0134A1100427951186B
:101BC0000A6803681A430A6005E0027951180A6836
:101BD00003689A430A6070470100002000220A4B04
:101BE0001B680B401A000C4B1B680B4204D0002AE8
:101BF00002D00123180001E000231800C0B2704792
:101C000005490860704700000004014004040140D9
:101C1000080401400C040140140401400022038820
:101C20001A00DFF85031984212D0DFF86031984244
:101C30000ED0B0F1804F0BD0DFF83C31984207D086
:101C4000DFF83831984203D0DFF83431984204D1BC
:101C50004FF68F731A404B881A43DFF828319842A9
:101C600008D0DFF82431984204D04FF6FF431A40E1
:101C7000CB881A4302808B8883850B880385DFF825
:101C8000F43098420FD0DFF8043198420BD0DFF8DF
:101C90000031984207D0DFF8FC30984203D0DFF8DB
:101CA000F830984201D10B7A038601238382704772
:101CB00070B4002300240022058C4EF6FF763540D8
:101CC0000584058C2C0085882A00858B2B0048F61E
:101CD000FF752B404FF6FF452B400D8853EA052337
:101CE0004DF6FF752C400D8954EA05344D8854EAB1
:101CF0000534DFF88050A84203D0DFF8A050A84296
:101D000005D14BF6FF752A408D8952EA85128280F3
:101D10008383CD88A0F84050048470BC70474FF690
:101D2000FF718180002101800021C180002141805C
:101D300000210172704700210180002141800021B3
:101D400081800021C1800021018100214181002189
:101D500081810021C1817047C9B2002904D0028865
:101D600052F00102028004E002884FF6FE731A402E
:101D700002807047002C0140000400400008004031
:101D8000000C0040001000400014004000340140EE
:101D9000004001400044014000480140003401403F
:101DA00010B500F0EDFEFEF703FAFEF7A9FBFEF713
:101DB000D9F9DFF8F40C0078002840F09881DFF8BA
:101DC000EC0CFEF794FCDFF8E40C8A210182DFF8CA
:101DD000DC0C8A214182DFF8D40C41218182DFF8BA
:101DE000CC0C27210183DFF8C40C0021C182DFF86D
:101DF000BC0C29210177DFF8B40C29214177DFF8E9
:101E0000AC0C2921C176DFF8A40C29218176DFF8FA
:101E10009C0C002180F82310DFF8900C4FF48171A6
:101E2000C183DFF8880C182180F82010DFF87C0CC3
:101E3000282180F82110DFF8740C282180F8221066
:101E4000DFF8680C402180F82610DFF8600C42F6BD
:101E500008614185DFF8540C082180F82510DFF86F
:101E60004C0CFF2180F82810DFF8400C072180F887
:101E70002710DFF8380CFEF771FCFEF7C6FDDFF81F
:101E8000301C0860FEF770FB46F6DC010120FEF70F
:101E900022FD64210120FEF7C4FCDFF8180CFEF7D8
:101EA00057F9FEF7B2FDDFF8081C0860DFF8040CF4
:101EB000FEF74EF9FEF79AFDFEF7BBFD0028FBD1B9
:101EC000DFF8F00BFEF744F9FEF768FBDFF8E81BDC
:101ED0000020FEF71DFDFEF7ACFD0028FBD1FEF74C
:101EE0008AFDDFF8D00BFEF733F94EF660210120B2
:101EF000FEF70EFDFEF79DFD0028FBD10121092014
:101F0000FEF78FFC0D210A20FEF78BFC40F61B51DB
:101F10000020FEF7E0FCDFF89C0BFEF719F9FEF756
:101F200065FD29210920FEF77CFC29210A20FEF706
:101F300078FCFEF78AFD0028FBD1DFF87C1B01202E
:101F4000FEF7E6FCFEF781FD0028FBD1DFF8640B0D
:101F5000FEF7FEF8FEF782FD002800D0FEE7FEF750
:101F600036FDFEF766FD0028FBD1DFF8480BFEF7D3
:101F7000EFF84FF6FF70FEF7E0FCFEF75AFD002881
:101F8000FBD1DFF8300BFEF7E3F8DFF8301B012060
:101F9000FEF7E5FCFEF74DFD0028FBD1DFF8140B42
:101FA000FEF7D6F80A20FEF763FCDFF8041B086092
:101FB0000D20FEF75DFCDFF8F81A0860FEF725FD3E
:101FC000DFF8EC1A08600120FEF752FCDFF8E01A97
:101FD0000860FEF706FD0120FEF74AFCDFF8D01A84
:101FE0000860FEF70DFDFEF72FFB46F6DC0201212F
:101FF0000820FEF7C9FCFEF71CFD002809D00121CE
:10200000DFF8BC0AFEF7BEF85FF48010FEF7A0F818
:10201000F1E70121DFF8A80AFFF7C8FADFF8940A10
:10202000FEF796F84CF250310020FEF771FCFEF7F7
:1020300000FD0028FBD1DFF87C0AFEF789F8FEF7E7
:10204000CBFCFEF7F6FC0028FBD1DFF8680AFEF7B0
:102050007FF800210020FEF7AFFCFEF7EAFC002825
:1020600009D00121DFF8580AFEF78CF85FF48010E0
:10207000FEF76EF8F1E70121DFF8440AFFF796FA60
:10208000DFF8300AFEF764F8DFF82C1A0120FEF7BB
:102090003FFCFEF7CEFC0028FBD1DFF8180AFEF764
:1020A00057F8FEF794FCFEF7C4FC0028FBD1DFF8DC
:1020B000040AFEF74DF8FEF7A8FCDFF8F4190860F3
:1020C000FEF786FA0120FEF71BFCFEF767FADFF841
:1020D000E409FEF73DF84FF4FA70FEF7CDFA7FF011
:1020E0007F40FEF735F8FEF7FBFA00F0D9BCDFF8C9
:1020F000D40900210160DFF8CC090068DFF8C819B5
:102100000978884211D2DFF8BC0900683021DFF875
:10211000BC2901FB0020FEF7EAFADFF8A8090068F5
:10212000401CDFF8A0190860E5E7DFF898090021F6
:102130000160DFF890090068DFF88C19097888429F
:1021400080F05C82DFF87C090068DFF8841911EB0D
:10215000C000D0E90023DFF87C09DFF87C1900F02B
:102160004DFD0022DFF8743900F030FE00F0A2FED1
:10217000DFF8501909683022DFF8503902FB0131CD
:102180000882DFF840090068DFF8541911EBC0003D
:10219000D0E90023DFF83C09DFF83C1900F02EFD00
:1021A0000022DFF8383900F011FE00F083FEDFF87E
:1021B000141909683022DFF8143902FB0131488212
:1021C000DFF800090068DFF81C1911EBC000D0E946
:1021D0000023DFF81409DFF8141900F00FFD0022C6
:1021E000DFF8F83800F0F2FD00F064FEDFF8D418F4
:1021F00009683022DFF8D43802FB01318882DFF829
:10220000C4080068DFF8E81811EBC000D0E900232B
:10221000DFF8D408DFF8D41800F0F0FC00F04AFE34
:10222000DFF8A01809683022DFF8A03802FB01317E
:102230000883DFF890080068DFF8B81831F810401C
:10224000DFF880080068DFF8B01811EBC000D0E9B3
:102250000023DFF89408DFF8A41800F0CFFC002278
:10226000DFF8783800F0B2FD00F024FE2043DFF8FC
:10227000541809683022DFF8543802FB0131C88253
:10228000DFF840080068DFF8781811EBC002D2E9E7
:1022900000010022DFF86C3800F032FE0022DFF887
:1022A0003C3800F093FD00F005FEDFF818180968CF
:1022B0003022DFF8183802FB01310877DFF8040814
:1022C0000068DFF8441811EBC002D2E900010022D7
:1022D000DFF8303800F014FE0022DFF8003800F09C
:1022E00075FD00F0E7FDDFF8DC1709683022DFF844
:1022F000DC3702FB01314877DFF8C8070068DFF8F8
:102300000C1811EBC002D2E900010022DFF8F4370B
:1023100000F0F6FD0022DFF8C43700F057FD00F0B2
:10232000C9FDDFF8A01709683022DFF8A03702FBEB
:102330000131C876DFF88C070068DFF8D41711EB9D
:10234000C002D2E900010022DFF8B83700F0D8FD62
:102350000022DFF8883700F039FD00F0ABFDDFF830
:10236000641709683022DFF8643702FB0131887690
:10237000DFF850070068DFF89C1711EBC000D0E9C8
:1023800000230020DFF8901700F020FD0022DFF886
:102390008C3700F0B5FD0022DFF8403700F016FD65
:1023A00000F088FDDFF81C1709683022DFF81C37C1
:1023B00002FB013181F82300DFF808070068DFF82D
:1023C000601711EBC000D0E90023DFF81C07DFF82D
:1023D0002C1700F013FC0022DFF8003700F0F6FCA9
:1023E00000F068FDDFF8DC1609683022DFF8DC3623
:1023F00002FB0131C883DFF8CC060068DFF8241740
:1024000011EBC002D2E90001DFF81C27DFF81C370E
:1024100000F076FD0022DFF8C43600F0D7FC00F0B3
:1024200049FDDFF8A01609683022DFF8A03602FB6C
:10243000013181F82000DFF88C060068DFF8F01623
:1024400011EBC002D2E90001DFF8DC26DFF8DC3650
:1024500000F056FD0022DFF8843600F0B7FC00F0F3
:1024600029FDDFF8601609683022DFF8603602FBCC
:10247000013181F82100DFF84C060068DFF8B4165E
:1024800011EBC002D2E90001DFF89C26DFF89C3690
:1024900000F036FD0022DFF8443600F097FC00F033
:1024A00009FDDFF8201609683022DFF8203602FB2C
:1024B000013181F82200DFF80C060068DFF8781699
:1024C00011EBC000D0E900230020DFF8701600F007
:1024D0007DFC0022DFF8683600F012FD0022DFF8F4
:1024E000FC3500F073FC00F0E5FCDFF8D815096856
:1024F0003022DFF8D83502FB013181F82600DFF801
:10250000C4050068DFF83C1631F81000DFF8B41598
:102510000968DFF8342632F811100843DFF8A415F3
:102520000968DFF8282632F811100843DFF89415FF
:102530000968DFF81C2632F811100843DFF884150B
:102540000968DFF8102632F811100843DFF8741517
:102550000968DFF8042632F811100843DFF8641523
:102560000968DFF8F82532F811100843DFF8541530
:1025700009683022DFF8543502FB01314885DFF865
:10258000440500683021DFF8442501FB0020DFF816
:1025900034150968DFF8C825895C80F82510DFF854
:1025A000240500683021DFF8242501FB0020DFF836
:1025B00014150968DFF8AC25895C80F82810DFF86D
:1025C00004050068DFF8A015405CDFF8F81409681E
:1025D000DFF89825895C0843DFF8E81409683022A1
:1025E000DFF8E83402FB013181F82700DFF8D4047A
:1025F0000068401CDFF8CC1408609AE5DFF8CC14C2
:10260000DFF8C4040078FEF7A9FBDFF86415DFF8F3
:10261000B8040078FEF7B0FEDFF8AC0400780228BA
:10262000C0F28C80DFF89C0400210160DFF8940484
:102630000068DFF89414097888420ED2DFF8840429
:102640000068DFF8301500224254DFF87804006893
:10265000401CDFF870140860E8E7DFF81C35012241
:10266000DFF8640401780020FEF7C4FDFEF7E1F90D
:102670000028FBD14EF660230122DFF84C040178DC
:102680000020FEF7B7FDFEF7D4F90028FBD1DFF8F4
:10269000E40440210170DFF8E4044EF6602101609B
:1026A000DFF8D00451210170DFF8D00446F6DC01D8
:1026B0000160DFF8C824DFF8BC14DFF80C040078F0
:1026C000FEF702FEFEF7B5F90028FBD17FF07F4050
:1026D000FDF73EFDDFF89C0470210170DFF89404E3
:1026E00050210170DFF8940442F252710160DFF86A
:1026F0008C24DFF88014DFF8D0030078FEF7E4FDC7
:10270000FEF797F90028FBD17FF07F40FDF720FD11
:10271000DFF8600400210170DFF85804B021017077
:10272000DFF85824DFF84C14DFF89C030078FEF73C
:10273000CBFDFEF77EF90028FBD1B1E14EF6602318
:1027400001220021DFF880030078FEF753FDFEF739
:1027500070F90028FBD1DFF81C0409210170DFF8B3
:102760001C0401210160DFF81424DFF80814DFF8ED
:1027700058030078FEF7C4F9DFF8F8030A21017066
:10278000DFF8F8030D210160DFF8F023DFF8E41330
:10279000DFF834030078FEF7B3F940F61B5300224C
:1027A000DFF8240301780020FEF734FD7FF07F403E
:1027B000FDF7CEFCDFF8BC03B02101700022DFF88A
:1027C000B413C1480078FEF77FFDDFF8A8030921A4
:1027D0000170BE48807EDFF8A4130860DFF89C23F8
:1027E000DFF89013B8480078FEF78AF9DFF8840321
:1027F0000A210170B548C07EDFF880130860DFF859
:102800007C23DFF87013B0480078FEF779F9FEF703
:102810001CF90028FBD1A84B0122AB48017800200D
:10282000FEF7E8FCA8480078FEF7E6FD0028F9D19D
:10283000FEF714F9002800D0FEE7DFF83803702116
:1028400001700022CB49A0480078FEF73DFDFEF75D
:10285000F0F80028FBD1C74860210170C7484FF647
:10286000FF710160C54AC34997480078FEF72CFD07
:10287000FEF7DFF80028FBD1BE4869210170BF4890
:102880008E490160BD4ABB498F480078FEF71CFDA8
:10289000FEF7CFF80028FBD1B6480A210170B44AF0
:1028A000B44989480078FEF7A7F9B2480D210170B4
:1028B000AF4AB04984480078FEF79EF9AC49824897
:1028C0000078FEF759FDAB4801210170A84AA949DB
:1028D0007D480078FEF790F9A648D82101700022C3
:1028E000A44979480078FEF7EFFCA2480121017065
:1028F0009F4AA04974480078FEF77EF99D48A821B8
:10290000017000229B4970480078FEF7DDFCFDF75E
:102910009BFE98488B210170984846F6DC010160C7
:10292000964A944968480078FEF7CEFCFEF781F895
:10293000002808D001216248FDF724FC5FF48010D4
:10294000FDF706FCF2E701215D48FEF72FFE4CF291
:10295000503300225C4801780020FEF74BFCFEF764
:1029600068F80028FBD18348782101700022814952
:1029700055480078FEF7A8FCFEF75BF80028FBD16D
:102980007FF07F40FDF7E4FB7A489221017000223E
:1029900078494D480078FEF797FCFEF74AF8002882
:1029A00008D001214648FDF7EDFB5FF48010FDF7EC
:1029B000CFFBF2E701214248FEF7F8FD3E4B012232
:1029C000414801780020FEF715FCFEF732F8002898
:1029D000FBD1684870210170002266493A480078AE
:1029E000FEF772FCFEF725F80028FBD1614859215B
:1029F000017000225F4934480078FEF765FC4FF40F
:102A0000FA70FDF739FE7FF07F40FDF7A1FBFDF77F
:102A100067FE57492C480078FEF7AEFCFDF7A4FD91
:102A200046F6DC030122284801780020FEF7F2FB7D
:102A30005048012101705148642101604F4A4D49BD
:102A400021480078FEF75CF87FF07F40FDF780FBBF
:102A500047491D480078FEF78FFC4648B0210170B9
:102A60000022444918480078FEF72EFCFDF7E1FFEC
:102A70000028FBD1FDF792FD0F4B00221248017890
:102A80000020FEF7B7FBFDF7D4FF0028FBD1394843
:102A9000A0210170002237490B480078FEF714FC92
:102AA000FDF7A5FDFEE700BF3A010020C0000020B1
:102AB00028010020FFFF4F00A0860100FFFF01005A
:102AC000001001401C0100208C000020900000201C
:102AD0001800002011EA2D819997B13F0000E03FD6
:102AE00020000020100000208DEDB5A0F7C6B03FFB
:102AF000280000203001002008010020F7C6104007
:102B0000400000200000D93F48000020380000208D
:102B100030000020700000200000F0BF0000A03F47
:102B20005000002058000020A31280E64CB3593F0B
:102B300060000020680000207800002000403FC0B6
:102B400000403F4084000020320100203601002078
:102B50003401002086000020880000208A00002028
:102B60008D0000208E0000203C0100208F000020FE
:102B7000240100203B010020F04902002001002038
:102B800080B500F001F801BD80B5FEF73DFD5FF4B2
:102B90008030FEF775FDFEF79EFD17490870164858
:102BA0000078012825D1002000F0DEFA0020FEF791
:102BB000E6FD0020FEF7FBFD0020FEF7ECFD012105
:102BC0000020FEF7BBFD5FF480115FF48030FEF75C
:102BD000A2FD0120FEF7ADFD3920FEF7E3FE00283F
:102BE000FAD00220FEF7B9FDFEF7C3FD0828FBD19D
:102BF00000E0FEE701BD000038010020B0B581EA29
:102C0000030C0CF0004C40F2FF7515EA11541DBF87
:102C100015EA1357AC42AF4239E0E41923EA4553B1
:102C200043F48013C90241F0004141EA505EC702FB
:102C30001100A7FB020200284FF00000EEFB01206C
:102C40004FF00001E3FB072118BF42F001024018DA
:102C500000214941E3FB0E01A4F580640F0302D279
:102C600052004041494154F101046CDD470872F1C2
:102C7000004250F1000051EB0451A1F580115CBFFE
:102C800041EA0C01B0BD4CEA05510020B0BD05EA97
:102C90001357AC4214BFAF4241E050EA410E1CBF93
:102CA00052EA430E02E061460020B0BD24423C449B
:102CB0001BD15FEA070EF6D0090302BF01460020D0
:102CC000AEF1140EB1FA81F7AEEB070401FA07FE7C
:102CD0000C37C7F1200100FA07F7C8404EEA000E92
:102CE00023EA455343F48013A2E733F00043B3FAD9
:102CF00083F704BFB2FA82FE77440B3FE41BB7F1BF
:102D0000200E2FBF02FA0EF3BB40C7F1200E22FAAD
:102D10000EFE38BF43EA0E03BA40641C82E750EA55
:102D2000410E14BF52EA430E6FF000014FF400173A
:102D300017EB430F8ABF194617EB410FB5E74CEA73
:102D400005510020B0BDD4F10104B4F120070FDA21
:102D5000C4F12007520828BF42F0010210FA07F51B
:102D600001FA07F7E1BF2A43E0403843E1400FE0B2
:102D7000352C98DCC7F1200452EA400220FA07F211
:102D800018BF42F0010231FA07F0A1400A430021C6
:102D900072F1004250F1000051EB0C01B0BD10B4D3
:102DA00050F8041B81B102681218001D50F8043B52
:102DB000DC0744BFA9F10104E31852F8044B43F8BF
:102DC000044B091FF9D1EBE710BC704770B44FF00A
:102DD000004591EA030C44BF6B4000F0D3B900BF3B
:102DE000841A71EB030603D2001BB141121973411F
:102DF0004FF4001C1CEB410F34BF7CEB430443E059
:102E00000C0DA4EB1356352E50DC45EAC323DB0A28
:102E100045EAC121C912B6F120050DDD63FA05F6B8
:102E2000EB4086EA0305124218BF45F00105C018C1
:102E300051F100010CD213E062FA06F5F240554060
:102E4000F3415A40B340F3405A408018594107D3E8
:102E500049085FEA30005FEA350528BF45F0010503
:102E600001F58011420875F1004250F1000041EB7C
:102E7000045170BC4FF4001C1CEB410F38BF70476D
:102E80000020090D090570471CEB410F10D252EAD2
:102E900043060BD0BCEB410F05D80C0DAB43661EAF
:102EA000342EB5DD02E0AB438018594170BC704749
:102EB00070BC7047F446400D40EAC120490006D27C
:102EC00000F00EF8004248BF6FF00040604700F08D
:102ED00007F84FF0004188428CBF084640426047E7
:102EE00040F00040490DA1F58061491C05D4D1F1A5
:102EF0001F0154BFC840C01770474FF00000704713
:102F0000F0B540F2FF7581EA030C0CF0004C15EAB5
:102F100011541DBF15EA1357AC42AF42E5E0BC4166
:102F2000C1F31301C3F31303801A994143F48013CF
:102F300004D2641E4000494180185941C90241EA47
:102F40005051B1FBF3F603FB1611A2FB0675D7EB4C
:102F5000C020A94102D2761E80185941C90241EA17
:102F60005051B1FBF3FE03FB1E11A2FB0E75D7EB14
:102F7000C020A94103D2AEF1010E80185941890247
:102F800041EA9051760546EA8E2EB1FBF3F603FB3B
:102F90001611A2FB0675D7EB8020A94102D2761E3E
:102FA00080185941C90241EA50514EEA060EB1FB60
:102FB000F3F603FB1611A2FB0675D7EBC020A9415F
:102FC00002D2761E80185941C90241EA5051B1FB24
:102FD000F3F703FB1711A2FB0735D3EBC020A94180
:102FE00067F100070CBF004247F0010766F3D527E1
:102FF0004FEA1E31B80814F5806412DDBD0775F183
:10300000004250EB0E5051EB045111F5801F5CBF94
:1030100041EA0C01F0BD4CF07F6141F0E04100203D
:10302000F0BDBD076D0840EA0E5041F48011D4F1A7
:103030000104B4F120060ADAC4F120060200E040DF
:1030400001FA06F3E1401843B24015430EE0342C78
:1030500013DCC6F1200445EA40056D0820FA06F2AB
:10306000154321FA06F0A1400D43002175F10042FD
:1030700050F1000051EB0C01F0BD00205FEA0C01A3
:10308000F0BDCFB992185B41B3FA83F704BFB2FA2F
:1030900082F6BF190B3FB7F120062FBF02FA06F3E5
:1030A000BB40C7F1200622FA06F638BF3343BA40C8
:1030B0001CB1E419641E33E77F4231F00041B1FADC
:1030C00081F404BFB0FA80F6A4190B3CB4F12006D9
:1030D0002FBF00FA06F1A140C4F1200620FA06F63F
:1030E00038BF3143A0403C1B1AE7AC421ABF05EA87
:1030F0001357AF4212E050EA41061CBF52EA4306A2
:10310000BFE750EA4107304661461CBF41EA05511E
:10311000F0BD52EA430C08BFC143F0BD00204FF49C
:10312000001616EB410F98BF16EB430F08BF16EBC6
:10313000410F24BFC14305E016EB430F0CBF6146AE
:103140004CEA0551F0BD50F8041B61B150F8042B56
:10315000D30744BFA9F101039A18002342F8043BA6
:10316000091FFAD1EFE770470021DFF81420126839
:10317000110011F038010143DFF80420116070479D
:1031800000200240841A71EB030604D26E40001B3B
:10319000B141121973414FF4001C1CEB410F34BFB5
:1031A0007CEB430684E00C0DA4EB1356362E7DDC3D
:1031B000012E43DC45EAC32343EA525312BFD20235
:1031C00092025B08240545EAC12141EA5051D2EB45
:1031D000C020994125D407D1B0FA80F610FA06F143
:1031E00064D00020203608E0B1FA81F6B140C6F183
:1031F000200220FA02F21143B0404FEAF474B4EB1B
:10320000465434F001064FEA74040AD8D6F5001685
:10321000760D04F00044F04061FA06F25040F140AF
:103220004840C00A40EA415021F0004128BF5FEA0F
:10323000500550F1000044EBD12137E045EAC323AB
:10324000DB0A45EAC121C90AB6F120050EDD42EAD2
:103250000242120CC5F1200603FA06F6EB4042EAE0
:1032600006056D42984161F100010DE062FA06F534
:10327000F240554063FA06FC82EA0C02F3405A40E1
:103280006D42904161EB030111F4801F05D1641E72
:10329000620502D06D004041494121F4801143088C
:1032A00075F1004350F1000041EB045170BC7047D0
:1032B0001CEB410F15D223F0004352EA43060BD01A
:1032C0004FEA4C0CBCEB410F04D80C0D661E342E9B
:1032D000B7DDEBE7801A994150EA410608BF0021AB
:1032E000E4E708BF1CEB430F28BF6FF00001DDE7E8
:1032F000FEE7FEE7FEE7FEE7FEE770477047704730
:10330000704780B50820FEF775FB00280AD008201A
:10331000FEF77EFB3120FEF745FB002802D001209E
:10332000FEF707FA1020FEF765FB00280AD01020F0
:10333000FEF76EFB3920FEF735FB002802D0022095
:10334000FEF70BFA01BD80B50120FEF745FC002811
:103350000ED00120FEF754FC10215348FEF726F949
:103360005FF48030FCF7F4FE10214F48FEF71BF9A4
:1033700001BD80B50220FEF72FFC00282AD00220D4
:10338000FEF73EFCFDF755FB0028FBD1FDF73DFBAA
:1033900010F06000454908604448006860280BD17F
:1033A0000420FDF765FA4149086040480068410083
:1033B0000120FDF790FA0DE03C480068002809D193
:1033C00044F2C0010120FDF786FA01213648FEF7DC
:1033D000EAF8FFE701BD80B50420FEF7FDFB0028F9
:1033E0002BD00420FEF70CFCFDF723FB0028FBD1BB
:1033F000FDF70BFB10F060002C4908602B480068BB
:10340000602817D10420FDF733FA284908602748BF
:1034100000684008002806D02448006841080120C0
:10342000FDF759FA09E0FDF7E6FA01211E48FEF71B
:10343000BDF802E01D480068002801BD80B54FF4CA
:103440008060FEF7C9FB002813D04FF48060FEF7C0
:10345000D7FB4FF480611648FEF78BF8002804D1A3
:1034600002211148FEF79FF803E002210E48FEF703
:103470009DF84FF40060FEF7AFFB002813D04FF427
:103480000060FEF7BDFB4FF400610948FEF771F8DC
:10349000002804D104210448FEF785F803E0042144
:1034A0000148FEF783F801BD001001402C01002007
:1034B000000C014080B55F48006850F001005D4994
:1034C00008605D4800685D4908405B4908605948EC
:1034D00000685B490840574908605648006830F466
:1034E0008020544908605448006830F4FE00524976
:1034F00008605048006830F0A0504E4908605148BC
:103500005FF47F01016050480021016000F005F880
:103510004E485FF00061016001BD80B500F001F828
:1035200001BD82B000200190002000904148006859
:1035300050F480303F4908603E48006810F4003085
:1035400000900198401C01900098002803D1019838
:10355000B0F5A06FF0D137480068800302D5012094
:10356000009001E000200090009801285FD13848C9
:10357000006850F01000364908603548006880083F
:103580008000334908603248006850F0020030493A
:1035900008602948284909680160274826490968C0
:1035A00001602548006850F480602349086026487F
:1035B000006828490840244908602348006840F40E
:1035C000833050F04400204908601A48006850F0E9
:1035D000806018490860174800680001FBD516484C
:1035E000006830F47C10144908601348006850F4F7
:1035F000E810114908600F48006850F080700D49CC
:1036000008600C4800688001FBD50B480068800802
:103610008000094908600848006850F00200064927
:1036200008600548006810F00C000828F9D102B0C5
:103630007047000000100240041002400000FFF03C
:10364000FFFFF6FE081002402C10024008ED00E0DB
:103650000020024000F0FEFF10B507497944183100
:10366000064C7C44163404E00A68081D511888474B
:103670000146A142F8D110BD08000000280000005A
:10368000C7FAFFFFB000000090000020000000001B
:103690000FF7FFFF900000008001000000000020F5
:1036A0000000000000F009F8002801D0FFF7D4FF67
:1036B0000020FEF775FB00F002F80120704700F0D3
:1036C00001B800000746384600F002F8FBE70000AA
:1036D00080B5C046C046024A11001820ABBEFBE7C9
:1036E000260002000148804701480047B534000821
:1036F000F5360008C046C046C046C046FFF7D2FFB8
:10370000FFF7F6BDFFF7F5BDFFF7F4BDFFF7F3BD1B
:10371000FFF7F2BDFFF7F1BDFFF7F0BDFFF7EFBD1B
:10372000FFF7EEBDFFF7FEBFFFF7FEBFFFF7FEBFDF
:10373000FFF7FEBFFFF7FEBFFFF7E3BDFFF703BED6
:10374000FFF717BEFFF747BEFFF7FEBFFFF7FEBF4D
:10375000FFF7FEBFFFF7FEBFFFF7FEBFFFF7FEBF9D
:10376000FFF7FEBFFFF7FEBFFFF7FEBFFFF7FEBF8D
:10377000FFF7FEBFFFF7FEBFFFF7FEBFFFF7FEBF7D
:10378000FFF7FEBFFFF7FEBFFFF7FEBFFFF7FEBF6D
:10379000FFF7FEBFFFF7FEBFFFF7FEBFFFF7FEBF5D
:1037A000FFF7FEBFFFF7FEBFFFF7FEBFFFF7FEBF4D
:1037B000FFF7FEBFFFF7FEBFFFF7FEBFFFF7FEBF3D
:1037C000FFF7FEBFFFF73ABEFFF7FEBFFFF7FEBFF2
:1037D000FFF7FEBFFFF7FEBFFFF7FEBFFFF7FEBF1D
:1037E000FFF7FEBFFFF7FEBFFFF7FEBFFFF7FEBF0D
:1037F000FFF7FEBFFFF7FEBFFFF7FEBFFFF7FEBFFD
:10380000FFF7FEBFFFF7FEBFFFF7FEBFFFF7FEBFEC
:10381000FFF7FEBFFFF7FEBF000000000102030438
:10382000010203040607080921B0726891FE8E4068
:103830002DB29DEFA7609F402DB29DEFA7609F40E6
:1038400039B4C876BE98824085EB51B81E05304029
:1038500085EB51B81E05304085EB51B81E05304050
:1038600085EB51B81E053040A8C64B3789C14E4084
:103870000E4FAF946588A33FA4AA09A2EE03B03F00
:10388000A4AA09A2EE03B03F000000000000F03F30
:103890000000000000BD9F4002040608080000026E
:0C38A0000020000C0108FF0700000000E1
:04000005080036F5C4
:00000001FF
