:020000040800F2
:1000000048050020DD3500080131000803310008F3
:100010000531000807310008093100080000000020
:100020000000000000000000000000000B3100088C
:100030000D310008000000000F31000811310008E8
:100040001D3600082136000825360008293600082C
:100050002D360008133100083536000839360008FF
:100060005731000839320008453600084936000883
:100070004D3600085136000855360008593600083C
:100080005D360008613600086536000869360008EC
:100090006D3600087136000875360008CB3200084E
:1000A0007D3600088136000885360008893600084C
:1000B0008D360008913600089536000899360008FC
:1000C0009D360008A1360008A5360008A9360008AC
:1000D000AD360008B1360008B5360008B93600085C
:1000E0005D330008C1360008C536000801B4009829
:1000F000002803D00098401E0090F8E701B0704738
:1001000080B50221DFF8400B01F0CEF942F2107009
:10011000FFF7ECFF0221DFF8300B01F0C2F901BD5F
:1001200038B504000D00290089B2200001F0ACF9B7
:10013000002805D0290089B2200001F0B5F904E0BB
:10014000290089B2200001F0ACF931BD80B5012150
:1001500044F2020001F00FFB0121192001F0FCFA2A
:10016000DFF8E80A10210180DFF8E00A032181703E
:10017000DFF8D80A1021C170DFF8D01ADFF8D00AF2
:1001800001F0DAF81021DFF8C80A01F08AF9DFF887
:10019000BC0A4FF480710180DFF8B00A032181703E
:1001A000DFF8A80A1021C170DFF8A01ADFF8A00A52
:1001B00001F0C2F8DFF8940A02210180DFF88C0A0E
:1001C00002218170DFF8840A1021C170DFF87C1AE7
:1001D000DFF8740A01F0B0F8DFF8700A042101803A
:1001E000DFF8680A02218170DFF8600A4821C170D7
:1001F000DFF8581ADFF8580A01F09EF8DFF84C0AC9
:1002000008210180DFF8440A02218170DFF83C0AEE
:100210004821C170DFF8341ADFF8340A01F08CF895
:10022000DFF8280A40210180DFF8200A02218170CE
:10023000DFF8180A4821C170DFF8101ADFF8100A39
:1002400001F07AF8DFF8040A4FF400510180DFF87A
:10025000FC0903218170DFF8F4091821C170DFF86F
:10026000EC19DFF8E40901F067F8DFF8E0094FF472
:1002700000410180DFF8D40903218170DFF8CC0947
:100280001821C170DFF8C419DFF8BC0901F054F877
:10029000DFF8B8094FF480510180DFF8B00903217D
:1002A0008170DFF8A8091021C170DFF8A019DFF80C
:1002B000980901F041F8DFF894094FF4804101807A
:1002C000DFF8880903218170DFF880094821C170B7
:1002D000DFF87819DFF8700901F02EF8DFF86C0903
:1002E0004FF480610180DFF8640903218170DFF839
:1002F0005C094821C170DFF85419DFF84C0901F09E
:100300001BF8DFF848094FF400610180DFF83C0971
:1003100003218170DFF834094821C170DFF82C19FE
:10032000DFF8240901F008F8DFF820090121018035
:10033000DFF8180903218170DFF810091821C17056
:10034000DFF80819DFF8000900F0F6FFDFF8980D74
:1003500000210180DFF8900D4FF482714180DFF8B9
:10036000880D00218180DFF8800D0221C180DFF837
:10037000780D01210181DFF8700D4FF4007141818A
:10038000DFF8640D18218181DFF85C0D0021C18147
:10039000DFF8540D07210182DFF84C1DDFF84C0D0A
:1003A00001F050FA0121DFF8440D01F06BFA00F082
:1003B00001F801BD80B508208DF8000001208DF8FE
:1003C000010000208DF8020001208DF8030000A834
:1003D00001F076FA28208DF8000001208DF8010048
:1003E00000208DF8020001208DF8030000A801F024
:1003F00067FA09208DF8000001208DF80100002027
:100400008DF8020001208DF8030000A801F058FAD1
:1004100017208DF8000001208DF8010000208DF8D4
:10042000020001208DF8030000A801F049FA01BD87
:1004300080B55FF48010FFF759FE4FF48071DFF84C
:10044000100801F02EF85FF48010FFF74FFE4FF414
:100450008071DFF8FC0701F027F85FF48010FFF7E8
:1004600045FE01BD00B583B00B21012001F01FF84E
:100470004FF40060009000208DF8040010208DF8EB
:10048000050001208DF8060000A801F055FA4FF490
:10049000006001F0A9FA07BD00B583B00A21012070
:1004A00001F005F84FF48060009000208DF8040002
:1004B00010208DF8050001208DF8060000A801F03D
:1004C0003BFA4FF4806001F08FFA07BD00B583B0AE
:1004D0004FF48060009000208DF8040000208DF81B
:1004E000060000A801F028FA07BD00B583B002217C
:1004F000022000F0DCFF0321022000F0D8FF0621DB
:10050000022000F0D4FF0420009000208DF80400A9
:1005100008208DF8050001208DF8060000A801F0E4
:100520000BFA042001F060FA0820009000208DF8FA
:10053000040008208DF8050001208DF8060000A8B1
:1005400001F0FAF9082001F04FFA40200090002055
:100550008DF8040008208DF8050001208DF80600B4
:1005600000A801F0E9F9402001F03EFA07BD70470C
:1005700010B58CB0040007A801F080F804A801F0C1
:10058000D2FA0798DFF8E81CB0FBF1F0401EADF896
:100590001000601EADF8140004A9DFF8540D01F03E
:1005A00031FA00A801F0CBFA6020ADF8000001207C
:1005B000ADF80200A4B2022094FBF0F0ADF8060002
:1005C00000A9DFF82C0D01F067FA0121DFF8200DFA
:1005D00001F0C6FA0CB010BD80B50021DFF8100D97
:1005E00001F0BEFA01BD00210160002181800021DF
:1005F00081608A2101828A214182412181820021F8
:10060000C18227210183292181762921C1762921CF
:100610000177292141774FF48161C183192180F845
:100620002010292180F82110292180F82210002192
:1006300080F82310402180F82610082180F825102A
:10064000072180F82710FF2180F8281042F68861E2
:100650004185704710B504002168012000F05DF865
:10066000A188022000F059F8A168032000F055F895
:10067000218A052000F051F8618A062000F04DF82B
:10068000A18A072000F049F8E18A082000F045F827
:10069000218B152000F041F8A17E092000F03DF8E3
:1006A000E17E0A2000F039F8217F0B2000F035F8B8
:1006B000617F0C2000F031F8E18B0D2000F02DF867
:1006C00094F820100E2000F028F894F821100F2044
:1006D00000F023F894F82210102000F01EF894F88F
:1006E0002310112000F019F894F82610142000F0BF
:1006F00014F894F82510132000F00FF894F8271040
:10070000162000F00AF894F82810172000F005F8D9
:10071000618D182000F001F810BD38B504000D00FF
:100720002000C0B200F022F9E4B22000401E0ED03A
:10073000401E10D0401E0AD0801E03280BD9083856
:1007400009D0083807D0C01E012804D907E0280CBA
:10075000C0B200F00BF9280AC0B200F007F9280077
:10076000C0B200F003F931BD70B5040000250026C9
:1007700054F02000C0B200F0F9F805002D062E4319
:10078000E4B22000401E0FD0401E13D0401E0128AE
:100790000AD9801E03280DD908380BD0083809D093
:1007A000C01E012806D90BE0002000F0DFF805008C
:1007B0002D042E43002000F0D9F805002D022E4311
:1007C000002000F0D3F805002E43300070BD38B58E
:1007D00004000D0054F05000C0B200F0C7F8280C1F
:1007E000C0B200F0C3F8280AC0B200F0BFF8280079
:1007F000C0B200F0BBF831BD10B5040054F0580091
:10080000C0B200F0B3F810BD38B504000D0054F0CC
:100810004000C0B200F0AAF8280CC0B200F0A6F860
:10082000280AC0B200F0A2F82800C0B200F09EF87A
:1008300031BD10B50400602000F098F8200CC0B263
:1008400000F094F8200AC0B200F090F82000C0B286
:1008500000F08CF810BD38B504000D0054F06800AD
:10086000C0B200F083F8280CC0B200F07FF8280A6C
:10087000C0B200F07BF82800C0B200F077F831BDBC
:1008800070B504000D00160055EA040050F0820017
:10089000C0B200F06BF8300CC0B200F067F8300A5C
:1008A000C0B200F063F83000C0B200F05FF870BD75
:1008B00038B504000D0055EA040050F09200C0B2B3
:1008C00000F054F831BD80B5702000F04FF801BD44
:1008D00080B5782000F04AF801BD80B5D82000F03E
:1008E00045F801BD80B5B02000F040F801BD80B5ED
:1008F000A02000F03BF801BD80B5A82000F036F83C
:1009000001BD38B500240025D02000F02FF80020CC
:1009100000F02CF8040024022543002000F026F803
:1009200004002543280080B232BD80B54FF48061B9
:10093000C54800F09CFD002801D1012000E0002006
:1009400002BD80B5FFF7DDFF800701D4012000E084
:10095000002002BD80B54FF40061BB4800F087FD68
:10096000002801D1012000E0002002BD10B50400E4
:100970004FF48051B44800F097FDE4B2210089B2F1
:10098000DFF8A00900F08CFF8021DFF8980900F063
:100990008BFF0028F8D14FF48051AB4800F081FD67
:1009A000DFF8800900F07EFFC0B210BDF8B504008A
:1009B0000D0016004FF48051A34800F075FD002093
:1009C0000700F6B2B74215D2217889B2DFF81C07CA
:1009D00000F066FF8021DFF8140700F065FF0028B3
:1009E000F8D1DFF8080700F05DFF2870641C6D1C6B
:1009F0007F1CE6E74FF48051934800F052FDF1BDB3
:100A00002DE9F04104000D0016005FF00008002001
:100A10000700E4B2A7425AD22878401E0FD0401EE9
:100A200020D0401E01280AD9801E03281AD9083870
:100A300018D0083816D0C01E012813D929E0DFF8D5
:100A4000E80829783954DFF8E00838183168090CCB
:100A50004170DFF8D40838183168090A8170032022
:100A600080462BE0DFF8C00800213954DFF8B808D1
:100A7000381829784170DFF8B00838183168090A49
:100A800081705FFA88F8B8F1020F01DA022080461F
:100A900014E0DFF8940800213954DFF88C08381886
:100AA00000214170DFF880083818297881705FFADA
:100AB00088F8B8F1000F01D101208046DFF86808FE
:100AC00038183168C1706D1C361D7F1CA1E75FFAB4
:100AD00088F8D8F103000700042F0BD22200D2B20D
:100AE000DFF848083918DFF840083818FFF75EFFCC
:100AF0007F1CF1E7BDE8F0812DE9F04104000D0015
:100B000016005FF0000800200700E4B2A7426BD295
:100B10002878401E0FD0401E20D0401E01280AD940
:100B2000801E03281AD9083818D0083816D0C01EDD
:100B3000012813D92AE0DFF8F007297851F02001C5
:100B40003954DFF8E407381800214170DFF8D8077E
:100B5000381800218170032080462EE0DFF8C80796
:100B600000213954DFF8C0073818297851F02001E6
:100B70004170DFF8B4073818002181705FFA88F8F7
:100B8000B8F1020F01DA0220804616E0DFF898077C
:100B900000213954DFF89007381800214170DFF840
:100BA00088073818297851F0200181705FFA88F899
:100BB000B8F1000F01D101208046DFF86C0738182A
:100BC0000021C170DFF86407381800214170DFF898
:100BD0005C07381800218170DFF8500738180021B1
:100BE000C1706D1C7F1C90E75FFA88F8D8F1030094
:100BF0000700042F0BD22200D2B2DFF830073918D9
:100C0000DFF824073818FFF7D1FE7F1CF1E700203A
:100C10000700E4B2A74213D2DFF810073818407873
:100C2000DFF8081779188978090251EA0040DFF8DF
:100C3000FC167918C97808433060361D7F1CE8E738
:100C4000BDE8F08100000000000C0140040100201C
:100C50000010014070B504000D0000200600E4B251
:100C6000A6420DD2DFF8C80601213154302000FB26
:100C700006500068DFF8BC1641F82600761CEEE747
:100C8000DFF8B026DFF8A8162000C0B2FFF7B8FEE4
:100C900000200600E4B2A6420DD2DFF8940602213D
:100CA0003154302000FB06508088DFF8881641F868
:100CB0002600761CEEE7DFF87C26DFF874162000AD
:100CC000C0B2FFF79DFE00200600E4B2A6420DD29E
:100CD000DFF85C0603213154302000FB06508068A9
:100CE000DFF8501641F82600761CEEE7DFF84426C0
:100CF000DFF83C162000C0B2FFF782FE002006009D
:100D0000E4B2A6420DD2DFF8280605213154302086
:100D100000FB0650008ADFF81C1641F82600761CFE
:100D2000EEE7DFF81026DFF808162000C0B2FFF764
:100D300067FE00200600E4B2A6420DD2DFF8F005FF
:100D400006213154302000FB0650408ADFF8E415BC
:100D500041F82600761CEEE7DFF8D825DFF8D0153D
:100D60002000C0B2FFF74CFE00200600E4B2A6420D
:100D70000DD2DFF8BC0507213154302000FB0650AE
:100D8000808ADFF8B01541F82600761CEEE7DFF820
:100D9000A425DFF89C152000C0B2FFF731FE00202B
:100DA0000600E4B2A6420DD2DFF8840508213154D2
:100DB000302000FB0650C08ADFF8781541F8260085
:100DC000761CEEE7DFF86C25DFF864152000C0B272
:100DD000FFF716FE00200600E4B2A6420DD2DFF8AF
:100DE000500515213154302000FB0650008BDFF8F0
:100DF000441541F82600761CEEE7DFF83825DFF8C9
:100E000030152000C0B2FFF7FBFD00200600E4B261
:100E1000A6420DD2DFF8180509213154302000FB1D
:100E20000650807EDFF80C1541F82600761CEEE7B0
:100E3000DFF80025DFF8F8142000C0B2FFF7E0FD6E
:100E400000200600E4B2A6420DD2DFF8E4040A2135
:100E50003154302000FB0650C07EDFF8D81441F832
:100E60002600761CEEE7DFF8CC24DFF8C41420005F
:100E7000C0B2FFF7C5FD00200600E4B2A6420DD2C5
:100E8000DFF8AC040B213154302000FB0650007F0A
:100E9000DFF8A01441F82600761CEEE7DFF8942472
:100EA000DFF88C142000C0B2FFF7AAFD0020060076
:100EB000E4B2A6420DD2DFF878040C213154302080
:100EC00000FB0650407FDFF86C1441F82600761CCA
:100ED000EEE7DFF86024DFF858142000C0B2FFF717
:100EE0008FFD00200600E4B2A6420DD2DFF84004D8
:100EF0000D213154302000FB0650C08BDFF8341434
:100F000041F82600761CEEE7DFF82824DFF82014ED
:100F10002000C0B2FFF774FD00200600E4B2A64234
:100F20000ED2DFF80C040E213154302000FB0650A5
:100F300090F82000DFF8FC1341F82600761CEDE75E
:100F4000DFF8F023DFF8E8132000C0B2FFF758FD08
:100F500000200600E4B2A6420ED2DFF8D4030F212F
:100F60003154302000FB065090F82100DFF8C41304
:100F700041F82600761CEDE7DFF8B823DFF8B01360
:100F80002000C0B2FFF73CFD00200600E4B2A642FC
:100F90000ED2DFF89C0310213154302000FB0650A4
:100FA00090F82200DFF88C1341F82600761CEDE75C
:100FB000DFF88023DFF878132000C0B2FFF720FDB0
:100FC00000200600E4B2A6420ED2DFF8640311212D
:100FD0003154302000FB065090F82300DFF8541302
:100FE00041F82600761CEDE7DFF84823DFF84013D0
:100FF0002000C0B2FFF704FD00200600E4B2A642C4
:101000000CD2CB4814213154302000FB065090F80C
:101010002600C84941F82600761CEFE7C54AC449B6
:101020002000C0B2FFF7ECFC00200600E4B2A642AC
:101030000CD2BF4813213154302000FB065090F8E9
:101040002500BC4941F82600761CEFE7B94AB849AB
:101050002000C0B2FFF7D4FC00200600E4B2A64294
:101060000CD2B34816213154302000FB065090F8C2
:101070002700B04941F82600761CEFE7AD4AAC499D
:101080002000C0B2FFF7BCFC00200600E4B2A6427C
:101090000CD2A74817213154302000FB065090F89D
:1010A0002800A44941F82600761CEFE7A14AA04990
:1010B0002000C0B2FFF7A4FC00200600E4B2A64264
:1010C0000BD29B4818213154302000FB0650408D34
:1010D000984941F82600761CF0E7964A944920008A
:1010E000C0B2FFF78DFC70BDF0000020003800405A
:1010F000F8B504000D0016001F003B0056F040023A
:10110000D2B22100C9B22800C0B200F011F8F1BD7E
:10111000F8B504000D0016001F003B0056F0500209
:10112000D2B22900C9B22000C0B200F001F8F1BD6E
:101130002DE9F04104000D0016001F00002080463C
:10114000EDB2A8452AD2E4B2A04511D1764808F8FC
:101150000060754818EB0000390C4170724818EBBC
:101160000000390A8170704818EB0000C77012E067
:101170006D48002108F800106B4818EB00000021B2
:101180004170694818EB000000218170664818EB37
:1011900000000021C17018F10108D1E7002080464D
:1011A000B8F1040F0CD22A00D2B2604818EB00014B
:1011B0005D4818EB0000FFF7F9FB18F10108EFE7B5
:1011C000BDE8F0812DE9F04104000D0016005FF04C
:1011D000000800200700E4B2A74236D2287810F0B9
:1011E000FA00C0B2402809D0502807D0602805D0A6
:1011F000682803D0822801D08A2813D14A48297848
:101200003954494838183168090C41704648381833
:101210003168090A8170444838183168C170032068
:1012200080460EE04048002139543F4838180021DC
:1012300041703D483818002181703B4838182978A2
:10124000C1706D1C361D7F1CC5E75FFA88F8D8F1A8
:1012500003000700042F09D22200D2B23348391804
:1012600031483818FFF7A2FB7F1CF3E7BDE8F08197
:1012700040420F0070B504000D0000200600E4B2EB
:10128000A64214D22848D0213154274830180021D2
:101290004170254830180021817024483018002101
:1012A00041702248301800218170761CE7E7002049
:1012B0000600032E09D22200D2B21C4831181A4867
:1012C0003018FFF773FB761CF3E700200600E4B24A
:1012D000A6420BD215483018407814497118897805
:1012E00051EA002028602D1D761CF0E770BD00003B
:1012F0000004004070B504000E492000C0B2FFF7A2
:10130000B9FF00200500E4B2A54205D2094850F813
:10131000250006436D1CF6E7B00701D4012000E06C
:10132000002070BD00380040100100201401002092
:101330003D01002018010020F0B500270022002305
:1013400000240025002691F803C01CF00F0C67460E
:1013500091F803C05FEACC6C03D591F802C05CEA57
:10136000070791F800C05FEA0C6C3AD0D0F800C0D3
:1013700065465FF0000C6346082B31D25FF0010C2C
:101380001CFA03FC6446B1F800C014EA0C0C624677
:10139000A24223D15FEA830C64465FF00F0C1CFA73
:1013A00004FC6646B54317FA04FC5CEA050591F8AF
:1013B00003C0BCF1280F06D15FF0010C1CFA03FC3E
:1013C000C0F814C00AE091F803C0BCF1480F05D181
:1013D0005FF0010C1CFA03FCC0F810C05B1CCBE7EB
:1013E0000560B1F800C0BCF1FF0F3FDDD0F804C0CC
:1013F00065465FF0000C6346082B36D25FF0010CA7
:1014000013F1080E1CFA0EFC6446B1F800C014EA91
:101410000C0C6246A24226D15FEA830C64465FF060
:101420000F0C1CFA04FC6646B54317FA04FC5CEA90
:10143000050591F803C0BCF1280F07D15FF0010C3E
:1014400013F1080E1CFA0EFCC0F814C091F803C08A
:10145000BCF1480F07D15FF0010C13F1080E1CFA24
:101460000EFCC0F810C05B1CC6E74560F0BD020072
:101470000020936889B20B4202D00123180001E0DA
:1014800000231800C0B2704702000020D36889B260
:101490000B4202D00123180001E000231800C0B263
:1014A000704789B20161704789B24161704730B4B9
:1014B00000220F2311F00304E4B2A400A3401A0099
:1014C000C9B28B100E4C54F823309343C9B28C1020
:1014D0000B4D45F82430C9B28B10094C54F8233019
:1014E000C0B211F00304E4B2A40010FA04F42343E0
:1014F000C9B28C10024D45F8243030BC7047000052
:1015000008000140DFF80003006850F00100DFF838
:10151000F8120860DFF8F4020068DFF8F4120840FF
:10152000DFF8E8120860DFF8E0020068DFF8E41294
:101530000840DFF8D4120860DFF8CC02006830F40D
:101540008020DFF8C4120860DFF8C002006830F4C1
:10155000FE00DFF8B8120860DFF8BC025FF41F017C
:1015600001607047DFF8A012096831F48031DFF8BC
:1015700098221160DFF89012096831F48021DFF8B9
:10158000882211600100B1F5803F03D0B1F5802FB2
:1015900009D011E0DFF87012096851F48031DFF8EA
:1015A0006822116008E0DFF86012096851F4A02198
:1015B000DFF854221160FFE7704738B50020009033
:1015C00000240025312000F0E5F805000098401CBB
:1015D00000900098B0F5A06F02D0EDB2002DF1D0D0
:1015E000312000F0D7F8002802D00120040001E0EB
:1015F000002004002000C0B232BD0022DFF80C320F
:101600001B681A0032F47C1251EA00031A43DFF817
:10161000FC311A607047DFF80412C0B208607047EE
:1016200000217A4A12681100890889000143774A2B
:10163000116070477548006810F00C007047002179
:10164000724A1268110031F0F00101436F4A1160D3
:10165000704700216D4A1268110031F4E0610143C6
:101660006A4A116070470021684A1268110031F41B
:10167000605151EAC001654A1160704730B40021E1
:10168000002200230024614D2D6815F00C0529006F
:101690000D00002D04D0042D05D0082D06D026E025
:1016A000604D056025E05F4D056022E0574D2D68D7
:1016B00015F470152A00554D2D6815F480352B0052
:1016C000920C921C002B04D1574D05FB02F50560CE
:1016D0000CE04E4D2D68AD0304D5534D05FB02F5CE
:1016E000056003E04F4D05FB02F5056001E04D4D3F
:1016F0000560464D2D6815F0F005290009094B4D90
:101700004D5D2C000568E5404560404D2D6815F4A1
:10171000E0652900090A454D4D5D2C004568E5400E
:1017200085603A4D2D6815F460552900C90A3F4D72
:101730004D5D2C004568E540C560344D2D6815F4BD
:1017400040452900890B3A4D4D5D2C00C568B5FB1D
:10175000F4F5056130BC7047C9B2002905D0354A9F
:1017600012680243334B1A6004E0324A1268824323
:10177000304B1A607047C9B2002905D02E4A126852
:1017800002432D4B1A6004E02B4A126882432A4B15
:101790001A60704710B40100002200230020C9B273
:1017A0004C09E4B22200012A03D1174C246823001B
:1017B00008E0022A03D11A4C2468230002E01F4CDF
:1017C00024682300C9B211F01F04220033FA02F486
:1017D000E40702D50124200001E000242000C0B26B
:1017E00010BC7047010000200B4A1268C9B20A42BF
:1017F00002D00122100001E000221000C0B27047A8
:101800000F490870704700000010024004100240A9
:101810000000FFF8FFFFF6FE0810024060004242A1
:101820002010024000127A0000093D000000002054
:1018300080000020181002401C10024024100240BA
:101840000A10024010B4002203881A0012F4415218
:101850000B884C8823438C882343CC8823430C89F2
:1018600023434C8923438C892343CC8923431A4344
:101870000280838B4FF2FF74234083830B8A0382A1
:1018800010BC7047C9B2002904D0028852F040024F
:10189000028004E002884FF6BF731A40028070474E
:1018A00081817047808970470200002013890B42B4
:1018B00002D00123180001E000231800C0B27047D5
:1018C000F0B4002300210F22C478002C20D0164C45
:1018D000246814F4E064D4F5E064240A2300D3F10E
:1018E00004042100DA4044788C40230084781440BA
:1018F00023431B0104780D4D6355047864110C4D8E
:101900000126077817F01F07BE4045F8246009E05C
:1019100004786411074D0126077817F01F07BE40B1
:1019200045F82460F0BC70470CED00E000E400E0F6
:1019300000E100E080E100E000212D4A1100827901
:10194000002A36D02A4A126803689A43284B1A6044
:10195000284A126803689A43264B1A600279511884
:101960000A6803681A430A60234A126803689A43A4
:10197000214B1A60214A126803689A431F4B1A6070
:101980004279102A0CD11C4A126803681A431A4B78
:101990001A601A4A126803681A43184B1A600EE05C
:1019A000134A1100427951180A6803681A430A6001
:1019B00005E0027951180A6803689A430A60704783
:1019C0000100002000220A4B1B680B401A000C4B40
:1019D0001B680B4204D0002A02D00123180001E04A
:1019E00000231800C0B27047054908607047000026
:1019F0000004014004040140080401400C040140BB
:101A000014040140002203881A00DFF87031984264
:101A100012D0DFF8803198420ED0B0F1804F0BD059
:101A2000DFF85C31984207D0DFF85831984203D094
:101A3000DFF85431984204D14FF68F731A404B8827
:101A40001A43DFF84831984208D0DFF84431984211
:101A500004D04FF6FF431A40CB881A4302808B888C
:101A600083850B880385DFF8143198420FD0DFF8A7
:101A7000243198420BD0DFF82031984207D0DFF8AC
:101A80001C31984203D0DFF81831984201D10B7A0B
:101A9000038601238382704770B400230024002250
:101AA000058C4FF6FF6635400584058C2C00858833
:101AB0002A00858B2B004FF68F752B404FF6FC7557
:101AC0002B400D882B434FF6FF552C400D8954EACF
:101AD00005244D8854EA0524DFF8A050A84203D01D
:101AE000DFF8C050A84217D14FF2FF752C404D8946
:101AF00054EA05244FF6FF352C408D8854EA05241E
:101B00004EF6FF752A404DF6FF752A408D8952EA40
:101B10000512CD8952EA051282808383CD8885879C
:101B2000048470BC70474FF6FF71818000210180F2
:101B30000021C180002141800021017270470021F5
:101B4000018000214180002181800021C18000218D
:101B5000018100214181002181810021C1817047E3
:101B6000C9B2002904D0028852F00102028004E0C8
:101B700002884FF6FE731A4002807047002C014025
:101B80000004004000080040000C0040001000402D
:101B90000014004000340140004001400044014076
:101BA000004801400034014010B500F0EFFEFEF7A0
:101BB000CDFAFEF73DFCFEF7A3FADFF8F80C00784B
:101BC000002840F09881DFF8F00CFEF70CFDDFF8FC
:101BD000E80C8A210182DFF8E00C8A214182DFF8DB
:101BE000D80C41218182DFF8D00C27210183DFF856
:101BF000C80C0021C182DFF8C00C29210177DFF871
:101C0000B80C29214177DFF8B00C2921C176DFF823
:101C1000A80C29218176DFF8A00C002180F8231080
:101C2000DFF8940C4FF48171C183DFF88C0C18211C
:101C300080F82010DFF8800C282180F82110DFF8D0
:101C4000780C282180F82210DFF86C0C402180F8F5
:101C50002610DFF8640C42F608614185DFF8580C65
:101C6000082180F82510DFF8500CFF2180F828109B
:101C7000DFF8440C072180F82710DFF83C0CFEF752
:101C8000E9FCFEF73EFEDFF8341C0860FEF7EAFBD5
:101C900046F6DC010120FEF79AFD64210120FEF7E3
:101CA0003CFDDFF81C0CFEF721FAFEF72AFEDFF8F8
:101CB0000C1C0860DFF8080CFEF718FAFEF712FE9D
:101CC000FEF733FE0028FBD1DFF8F40BFEF70EFA27
:101CD000FEF7E2FBDFF8EC1B0020FEF795FDFEF7B8
:101CE00024FE0028FBD1FEF702FEDFF8D40BFEF73E
:101CF000FDF94EF660210120FEF786FDFEF715FE88
:101D00000028FBD101210920FEF707FD0D210A2043
:101D1000FEF703FD40F61B510020FEF758FDDFF8EB
:101D2000A00BFEF7E3F9FEF7DDFD29210920FEF700
:101D3000F4FC29210A20FEF7F0FCFEF702FE002841
:101D4000FBD1DFF8801B0120FEF75EFDFEF7F9FDF9
:101D50000028FBD1DFF8680BFEF7C8F9FEF7FAFDA3
:101D6000002800D0FEE7FEF7AEFDFEF7DEFD0028FE
:101D7000FBD1DFF84C0BFEF7B9F94FF6FF70FEF719
:101D800058FDFEF7D2FD0028FBD1DFF8340BFEF73B
:101D9000ADF9DFF8341B0120FEF75DFDFEF7C5FD50
:101DA0000028FBD1DFF8180BFEF7A0F90A20FEF798
:101DB000DBFCDFF8081B08600D20FEF7D5FCDFF820
:101DC000FC1A0860FEF79DFDDFF8F01A086001209C
:101DD000FEF7CAFCDFF8E41A0860FEF77EFD01207A
:101DE000FEF7C2FCDFF8D41A0860FEF785FDFEF7A7
:101DF000BEFB46F6DC0201210820FEF741FDFEF79E
:101E000094FD002809D01021DFF8C00AFEF788F9F8
:101E10005FF48010FEF76AF9F1E71021DFF8AC0AF1
:101E2000FFF73FFBDFF8980AFEF760F94CF25031FC
:101E30000020FEF7E9FCFEF778FD0028FBD1DFF873
:101E4000800AFEF753F9FEF743FDFEF76EFD00280A
:101E5000FBD1DFF86C0AFEF749F900210020FEF7FC
:101E600027FDFEF762FD002809D01021DFF85C0A8B
:101E7000FEF756F95FF48010FEF738F9F1E710210C
:101E8000DFF8480AFFF70DFBDFF8340AFEF72EF9FA
:101E9000DFF8301A0120FEF7B7FCFEF746FD0028F8
:101EA000FBD1DFF81C0AFEF721F9FEF70CFDFEF767
:101EB0003CFD0028FBD1DFF8080AFEF717F9FEF712
:101EC00020FDDFF8F8190860FEF700FB0120FEF79F
:101ED00093FCFEF7E1FADFF8E809FEF707F94FF4A3
:101EE000FA70FEF745FB7FF07F40FEF7FFF8FEF744
:101EF00073FB00F0DABCDFF8D80900210160DFF8DD
:101F0000D0090068DFF8CC190978884211D2DFF8CF
:101F1000C00900683021DFF8C02901FB0020FEF76E
:101F200062FBDFF8AC090068401CDFF8A419086008
:101F3000E5E7DFF89C0900210160DFF894090068FB
:101F4000DFF890190978884280F05C82DFF8800918
:101F50000068DFF8881911EBC000D0E90023DFF832
:101F60008009DFF8801900F04BFD0022DFF8783996
:101F700000F02EFE00F0A0FEDFF8541909683022B0
:101F8000DFF8543902FB01310882DFF844090068A8
:101F9000DFF8581911EBC000D0E90023DFF8400941
:101FA000DFF8401900F02CFD0022DFF83C3900F08A
:101FB0000FFE00F081FEDFF8181909683022DFF803
:101FC000183902FB01314882DFF804090068DFF8A4
:101FD000201911EBC000D0E90023DFF81809DFF861
:101FE000181900F00DFD0022DFF8FC3800F0F0FDBC
:101FF00000F062FEDFF8D81809683022DFF8D83820
:1020000002FB01318882DFF8C8080068DFF8EC18AD
:1020100011EBC000D0E90023DFF8D808DFF8D818AA
:1020200000F0EEFC00F048FEDFF8A418096830224A
:10203000DFF8A43802FB01310883DFF89408006858
:10204000DFF8BC1831F81040DFF884080068DFF8CA
:10205000B41811EBC000D0E90023DFF89808DFF8CE
:10206000A81800F0CDFC0022DFF87C3800F0B0FDAD
:1020700000F022FE2043DFF8581809683022DFF80C
:10208000583802FB0131C882DFF844080068DFF8E5
:102090007C1811EBC002D2E900010022DFF8703891
:1020A00000F036FE0022DFF8403800F091FD00F02D
:1020B00003FEDFF81C1809683022DFF81C3802FB29
:1020C00001310877DFF808080068DFF8481811EBDD
:1020D000C002D2E900010022DFF8343800F018FE17
:1020E0000022DFF8043800F073FD00F0E5FDDFF8B2
:1020F000E01709683022DFF8E03702FB013148774A
:10210000DFF8CC070068DFF8101811EBC002D2E945
:1021100000010022DFF8F83700F0FAFD0022DFF8B6
:10212000C83700F055FD00F0C7FDDFF8A4170968B7
:102130003022DFF8A43702FB0131C876DFF89007C0
:102140000068DFF8D81711EBC002D2E900010022C5
:10215000DFF8BC3700F0DCFD0022DFF88C3700F040
:1021600037FD00F0A9FDDFF8681709683022DFF8B5
:10217000683702FB01318876DFF854070068DFF822
:10218000A01711EBC000D0E900230020DFF894175E
:1021900000F01EFD0022DFF8903700F0B9FD0022AC
:1021A000DFF8443700F014FD00F086FDDFF820175B
:1021B00009683022DFF8203702FB013181F8230063
:1021C000DFF80C070068DFF8641711EBC000D0E9F6
:1021D0000023DFF82007DFF8301700F011FC0022A1
:1021E000DFF8043700F0F4FC00F066FDDFF8E016DD
:1021F00009683022DFF8E03602FB0131C883DFF8DE
:10220000D0060068DFF8281711EBC002D2E9000100
:10221000DFF82027DFF8203700F07AFD0022DFF812
:10222000C83600F0D5FC00F047FDDFF8A4160968B9
:102230003022DFF8A43602FB013181F82000DFF8FC
:1022400090060068DFF8F41611EBC002D2E9000135
:10225000DFF8E026DFF8E03600F05AFD0022DFF874
:10226000883600F0B5FC00F027FDDFF86416096839
:102270003022DFF8643602FB013181F82100DFF8FB
:1022800050060068DFF8B81611EBC002D2E9000171
:10229000DFF8A026DFF8A03600F03AFD0022DFF8D4
:1022A000483600F095FC00F007FDDFF824160968B9
:1022B0003022DFF8243602FB013181F82200DFF8FA
:1022C00010060068DFF87C1611EBC000D0E900238F
:1022D0000020DFF8741600F07BFC0022DFF86C367B
:1022E00000F016FD0022DFF8003600F071FC00F06F
:1022F000E3FCDFF8DC1509683022DFF8DC3502FB8F
:10230000013181F82600DFF8C8050068DFF84016C3
:1023100031F81000DFF8B8150968DFF8382632F810
:1023200011100843DFF8A8150968DFF82C2632F8E9
:1023300011100843DFF898150968DFF8202632F8F5
:1023400011100843DFF888150968DFF8142632F801
:1023500011100843DFF878150968DFF8082632F80D
:1023600011100843DFF868150968DFF8FC2532F81A
:1023700011100843DFF8581509683022DFF8583586
:1023800002FB01314885DFF8480500683021DFF89D
:10239000482501FB0020DFF838150968DFF8CC2557
:1023A000895C80F82510DFF8280500683021DFF807
:1023B000282501FB0020DFF818150968DFF8B02593
:1023C000895C80F82810DFF808050068DFF8A4159C
:1023D000405CDFF8FC140968DFF89C25895C084341
:1023E000DFF8EC1409683022DFF8EC3402FB01312D
:1023F00081F82700DFF8D8040068401CDFF8D0140B
:1024000008609AE5DFF8D014DFF8C8040078FEF71A
:1024100021FCDFF86815DFF8BC040078FEF72AFF1E
:10242000DFF8B00400780228C0F28C80DFF8A00446
:1024300000210160DFF898040068DFF8981409783B
:1024400088420ED2DFF888040068DFF834150022D5
:102450004254DFF87C040068401CDFF87414086004
:10246000E8E7DFF820350122DFF868040178002072
:10247000FEF73EFEFEF759FA0028FBD14EF6602328
:102480000122DFF8500401780020FEF731FEFEF74C
:102490004CFA0028FBD1DFF8E80440210170DFF896
:1024A000E8044EF660210160DFF8D4045121017088
:1024B000DFF8D40446F6DC010160DFF8CC24DFF855
:1024C000C014DFF810040078FEF77CFEFEF72DFA4A
:1024D0000028FBD17FF07F40FDF708FEDFF8A00465
:1024E00070210170DFF8980450210170DFF8980422
:1024F00042F252710160DFF89024DFF88414DFF8B3
:10250000D4030078FEF75EFEFEF70FFA0028FBD139
:102510007FF07F40FDF7EAFDDFF8640400210170E1
:10252000DFF85C04B0210170DFF85C24DFF85014A0
:10253000DFF8A0030078FEF745FEFEF7F6F9002865
:10254000FBD1B2E14EF6602301220021DFF88403C3
:102550000078FEF7CDFDFEF7E8F90028FBD1DFF8A3
:10256000200409210170DFF8200401210160DFF857
:102570001824DFF80C14DFF85C030078FEF740FA4B
:10258000DFF8FC030A210170DFF8FC030D21016074
:10259000DFF8F423DFF8E813DFF838030078FEF7FC
:1025A0002FFA40F61B530022DFF8280301780020A1
:1025B000FEF7AEFD7FF07F40FDF798FDDFF8C0032A
:1025C000B02101700022DFF8B813C2480078FEF78E
:1025D000F9FDDFF8AC0309210170BF48807EDFF808
:1025E000A8130860DFF8A023DFF89413B948007837
:1025F000FEF706FADFF888030A210170B648C07EAC
:10260000DFF884130860DFF88023DFF87413B14823
:102610000078FEF7F5F9FEF794F90028FBD1A94BF5
:102620000122AC4801780020FEF762FDA94800783D
:10263000FEF760FE0028F9D1FEF78CF9002800D0E3
:10264000FEE7DFF83C03702101700022DFF8301351
:10265000A0480078FEF7B6FDFEF767F90028FBD129
:10266000C74860210170C8484FF6FF710160C64A33
:10267000C34998480078FEF7A5FDFEF756F90028F3
:10268000FBD1BF4869210170BF488F490160BE4A34
:10269000BB4990480078FEF795FDFEF746F9002803
:1026A000FBD1B7480A210170B44AB549894800787E
:1026B000FEF722FAB2480D210170B04AB0498548B0
:1026C0000078FEF719FAAD4982480078FEF7D2FD8E
:1026D000AB4801210170A94AA9497E480078FEF75C
:1026E0000BFAA748D82101700022A5497948007843
:1026F000FEF768FDA24801210170A04AA049754873
:102700000078FEF7F9F99E48A821017000229C4943
:1027100070480078FEF756FDFDF729FF98488B2199
:102720000170994846F6DC010160974A944969486E
:102730000078FEF747FDFEF7F8F8002808D01021D2
:102740006248FDF7EDFC5FF48010FDF7CFFCF2E787
:1027500010215E48FEF7A5FE4CF2503300225D4882
:1027600001780020FEF7C4FCFEF7DFF80028FBD15B
:102770008348782101700022814956480078FEF78D
:1027800021FDFEF7D2F80028FBD17FF07F40FDF756
:10279000ADFC7B4892210170002279494D480078B8
:1027A000FEF710FDFEF7C1F8002808D010214748B9
:1027B000FDF7B6FC5FF48010FDF798FCF2E71021FE
:1027C0004248FEF76EFE3F4B01224248017800204E
:1027D000FEF78EFCFEF7A9F80028FBD168487021AF
:1027E0000170002266493B480078FEF7EBFCFEF7DB
:1027F0009CF80028FBD162485921017000226049F1
:1028000034480078FEF7DEFC4FF4FA70FDF7B0FEB6
:102810007FF07F40FDF76AFCFDF7DEFE57492D484B
:102820000078FEF727FDFDF71DFE46F6DC030122CA
:10283000284801780020FEF76BFC51480121017007
:10284000514864210160504A4D4922480078FEF702
:10285000D7F87FF07F40FDF749FC48491D480078D4
:10286000FEF708FD4648B02101700022444919488E
:102870000078FEF7A7FCFEF758F80028FBD1FDF71B
:102880000BFE104B0022134801780020FEF730FCAD
:10289000FEF74BF80028FBD13948A0210170002237
:1028A00037490C480078FEF78DFCFDF70FFEFDF769
:1028B0001CFEFEE73E010020C00000202801002091
:1028C000FFFF4F00A0860100FFFF01000010014044
:1028D0001C0100208C000020900000201800002027
:1028E00011EA2D819997B13F0000E03F20000020C0
:1028F000100000208DEDB5A0F7C6B03F28000020E5
:102900003401002008010020F7C6104040000020DC
:102910000000D93F4800002038000020300000208F
:10292000700000200000F0BF0000A03F5000002019
:1029300058000020A31280E64CB3593F60000020ED
:10294000680000207800002000403FC000403F4069
:1029500084000020360100203A01002038010020C8
:1029600086000020880000208A0000208D000020C2
:102970008E000020400100208F0000202401002054
:102980003F010020F04902002001002080B500F046
:1029900001F801BD80B5FEF7B5FD5FF48030FEF7AC
:1029A000E1FDFEF70AFE1549087014480078012879
:1029B00021D1002000F0E0FA0020FEF740FE0020C8
:1029C000FEF751FE0020FEF744FE5FF480215FF425
:1029D0008030FEF712FE0120FEF71DFE3920FEF7C3
:1029E000D9FE0028FAD00220FEF71AFEFEF722FEDA
:1029F0000828FBD100E0FEE701BD00003C010020FB
:102A0000B0B581EA030C0CF0004C40F2FF7515EAFA
:102A100011541DBF15EA1357AC42AF4239E0E41917
:102A200023EA455343F48013C90241F0004141EACF
:102A3000505EC7021100A7FB020200284FF0000001
:102A4000EEFB01204FF00001E3FB072118BF42F02D
:102A50000102401800214941E3FB0E01A4F5806406
:102A60000F0302D252004041494154F101046CDD90
:102A7000470872F1004250F1000051EB0451A1F5FA
:102A800080115CBF41EA0C01B0BD4CEA0551002049
:102A9000B0BD05EA1357AC4214BFAF4241E050EA63
:102AA000410E1CBF52EA430E02E061460020B0BD59
:102AB00024423C441BD15FEA070EF6D0090302BF53
:102AC00001460020AEF1140EB1FA81F7AEEB070417
:102AD00001FA07FE0C37C7F1200100FA07F7C840DA
:102AE0004EEA000E23EA455343F48013A2E733F085
:102AF0000043B3FA83F704BFB2FA82FE77440B3F78
:102B0000E41BB7F1200E2FBF02FA0EF3BB40C7F152
:102B1000200E22FA0EFE38BF43EA0E03BA40641CB0
:102B200082E750EA410E14BF52EA430E6FF00001F3
:102B30004FF4001717EB430F8ABF194617EB410FED
:102B4000B5E74CEA05510020B0BDD4F10104B4F161
:102B500020070FDAC4F12007520828BF42F0010213
:102B600010FA07F501FA07F7E1BF2A43E0403843BE
:102B7000E1400FE0352C98DCC7F1200452EA400216
:102B800020FA07F218BF42F0010231FA07F0A14023
:102B90000A43002172F1004250F1000051EB0C0198
:102BA000B0BD10B450F8041B81B102681218001DAA
:102BB00050F8043BDC0744BFA9F10104E31852F8C4
:102BC000044B43F8044B091FF9D1EBE710BC7047E5
:102BD00070B44FF0004591EA030C44BF6B4000F025
:102BE000D9B900BF841A71EB030603D2001BB141AF
:102BF000121973414FF4001C1CEB410F34BF7CEBE6
:102C0000430443E00C0DA4EB1356352E50DC45EA8B
:102C1000C323DB0A45EAC121C912B6F120050DDD47
:102C200063FA05F6EB4086EA0305124218BF45F049
:102C30000105C01851F100010CD213E062FA06F54B
:102C4000F2405540F3415A40B340F3405A40801897
:102C5000594107D349085FEA30005FEA350528BFCC
:102C600045F0010501F58011420875F1004250F16F
:102C7000000041EB045170BC4FF4001C1CEB410FF1
:102C800038BF70470020090D090570471CEB410F44
:102C900010D252EA43060BD0BCEB410F05D80C0D05
:102CA000AB43661E342EB5DD02E0AB4380185941BC
:102CB00070BC704770BC7047F446400D40EAC120BC
:102CC000490006D200F014F8004248BF6FF00040FF
:102CD000604700F00DF84FF0004188428CBF084675
:102CE00040426047400D40EAC120490080F00D801D
:102CF00040F00040490DA1F58061491C05D4D1F197
:102D00001F0154BFC840C01770474FF00000704704
:102D1000F0B540F2FF7581EA030C0CF0004C15EAA7
:102D200011541DBF15EA1357AC42AF42E5E0BC4158
:102D3000C1F31301C3F31303801A994143F48013C1
:102D400004D2641E4000494180185941C90241EA39
:102D50005051B1FBF3F603FB1611A2FB0675D7EB3E
:102D6000C020A94102D2761E80185941C90241EA09
:102D70005051B1FBF3FE03FB1E11A2FB0E75D7EB06
:102D8000C020A94103D2AEF1010E80185941890239
:102D900041EA9051760546EA8E2EB1FBF3F603FB2D
:102DA0001611A2FB0675D7EB8020A94102D2761E30
:102DB00080185941C90241EA50514EEA060EB1FB52
:102DC000F3F603FB1611A2FB0675D7EBC020A94151
:102DD00002D2761E80185941C90241EA5051B1FB16
:102DE000F3F703FB1711A2FB0735D3EBC020A94172
:102DF00067F100070CBF004247F0010766F3D527D3
:102E00004FEA1E31B80814F5806412DDBD0775F174
:102E1000004250EB0E5051EB045111F5801F5CBF86
:102E200041EA0C01F0BD4CF07F6141F0E04100202F
:102E3000F0BDBD076D0840EA0E5041F48011D4F199
:102E40000104B4F120060ADAC4F120060200E040D1
:102E500001FA06F3E1401843B24015430EE0342C6A
:102E600013DCC6F1200445EA40056D0820FA06F29D
:102E7000154321FA06F0A1400D43002175F10042EF
:102E800050F1000051EB0C01F0BD00205FEA0C0195
:102E9000F0BDCFB992185B41B3FA83F704BFB2FA21
:102EA00082F6BF190B3FB7F120062FBF02FA06F3D7
:102EB000BB40C7F1200622FA06F638BF3343BA40BA
:102EC0001CB1E419641E33E77F4231F00041B1FACE
:102ED00081F404BFB0FA80F6A4190B3CB4F12006CB
:102EE0002FBF00FA06F1A140C4F1200620FA06F631
:102EF00038BF3143A0403C1B1AE7AC421ABF05EA79
:102F00001357AF4212E050EA41061CBF52EA430693
:102F1000BFE750EA4107304661461CBF41EA055110
:102F2000F0BD52EA430C08BFC143F0BD00204FF48E
:102F3000001616EB410F98BF16EB430F08BF16EBB8
:102F4000410F24BFC14305E016EB430F0CBF6146A0
:102F50004CEA0551F0BD50F8041B61B150F8042B48
:102F6000D30744BFA9F101039A18002342F8043B98
:102F7000091FFAD1EFE770470021DFF8142012682B
:102F8000110011F038010143DFF80420116070478F
:102F900000200240841A71EB030604D26E40001B2D
:102FA000B141121973414FF4001C1CEB410F34BFA7
:102FB0007CEB430684E00C0DA4EB1356362E7DDC2F
:102FC000012E43DC45EAC32343EA525312BFD20227
:102FD00092025B08240545EAC12141EA5051D2EB37
:102FE000C020994125D407D1B0FA80F610FA06F135
:102FF00064D00020203608E0B1FA81F6B140C6F175
:10300000200220FA02F21143B0404FEAF474B4EB0C
:10301000465434F001064FEA74040AD8D6F5001677
:10302000760D04F00044F04061FA06F25040F140A1
:103030004840C00A40EA415021F0004128BF5FEA01
:10304000500550F1000044EBD12137E045EAC3239D
:10305000DB0A45EAC121C90AB6F120050EDD42EAC4
:103060000242120CC5F1200603FA06F6EB4042EAD2
:1030700006056D42984161F100010DE062FA06F526
:10308000F240554063FA06FC82EA0C02F3405A40D3
:103090006D42904161EB030111F4801F05D1641E64
:1030A000620502D06D004041494121F4801143087E
:1030B00075F1004350F1000041EB045170BC7047C2
:1030C0001CEB410F15D223F0004352EA43060BD00C
:1030D0004FEA4C0CBCEB410F04D80C0D661E342E8D
:1030E000B7DDEBE7801A994150EA410608BF00219D
:1030F000E4E708BF1CEB430F28BF6FF00001DDE7DA
:10310000FEE7FEE7FEE7FEE7FEE770477047704721
:10311000704780B50820FEF765FB00280AD008201C
:10312000FEF76EFB3120FEF735FB002802D00120B0
:10313000FEF771FA1020FEF755FB00280AD0102088
:10314000FEF75EFB3920FEF725FB002802D00220A7
:10315000FEF766FA01BD80B50420FEF731FC0028B9
:1031600069D00420FEF740FC98480078002847D03A
:103170009748007802280CDB9648A02101709548FA
:10318000A02101700022934991480078FEF71AF8B7
:1031900051E0FDF7CAFB0028FBD18F498C4800782D
:1031A000FEF768F88C48007810F060008B490860E2
:1031B0008A480068602809D18648B0210170002241
:1031C000844983480078FDF7FDFF34E083480068B8
:1031D000002814D18248D0E9002382488249FFF7B1
:1031E0000FFC0022814BFFF7F3FCFFF77BFD830808
:1031F0000122774801780020FDF78AFF1BE01AE0E2
:10320000FDF793FB0028FBD1FDF77BFB10F060007E
:103210007249086071480068602802D1FDF767FBB9
:1032200009E06E480068002805D144F2C001012081
:10323000FDF7CDFAFFE701BD80B50820FEF7C0FB22
:10324000002841D00820FEF7CFFBFDF76EFB0028D9
:10325000FBD15E48007800282BD05D48007802281A
:1032600014DB5F48D0E900235E485F49FFF7C8FBE5
:1032700000225E4BFFF7ACFCFFF734FD0300012298
:10328000534801780020FDF743FF1DE05148042119
:103290000170514A4F494E480078FDF72DFC4E48C9
:1032A0000068430801224A4801780020FDF730FFFA
:1032B0000AE00420FDF758FA4849086047480068CA
:1032C00041080120FDF783FA01BD80B54020FEF7DB
:1032D00077FB002841D04020FEF786FBFDF725FB59
:1032E0000028FBD13948007800282BD038480078D6
:1032F000022814DB3A48D0E900233A483A49FFF75C
:103300007FFB0022394BFFF763FCFFF7EBFC030068
:1033100001222F4801780020FDF7FAFE1DE02D481C
:10332000042101702C4A2B4929480078FDF7E4FB61
:103330002948006843000122254801780020FDF754
:10334000E7FE0AE00420FDF70FFA2449086023484D
:10335000006841000120FDF73AFA01BD80B54FF445
:103360008060FEF72DFB002813D04FF48060FEF73D
:103370003BFB4FF480611E48FEF779F8002804D12A
:1033800010211C48FEF78DF803E010211948FEF7C4
:103390008BF84FF40060FEF713FB002815D04FF4B4
:1033A0000060FEF721FB4FF400611148FEF75FF863
:1033B000002805D14FF480710E48FEF772F804E042
:1033C0004FF480710B48FEF76FF801BD3E010020FD
:1033D0008C000020410100202C0100203001002041
:1033E000100000208DEDB5A0F7C650400000E03F72
:1033F000000C01400010014080B54E48006850F0BC
:1034000001004C4908604C4800684C4908404A4952
:103410000860484800684A490840464908604548ED
:10342000006830F48020434908604348006830F465
:10343000FE004149086043485FF41F01016000F04D
:1034400005F841485FF00061016001BD80B500F002
:1034500001F801BD82B000200190002000903548A5
:10346000006850F48030334908603248006810F436
:10347000003000900198401C01900098002803D172
:103480000198B0F5A06FF0D12A480068800302D5FA
:103490000120009001E0002000900098012847D111
:1034A0002A48006850F01000284908602748006842
:1034B00080088000254908602448006850F0020018
:1034C000224908601C481C49096801601A481A49C9
:1034D000096801601848006850F480601649086067
:1034E0001548006830F47C101349086012480068E1
:1034F00050F4E810104908600E48006850F08070E1
:103500000C4908600B4800688001FBD50A48006838
:1035100080088000084908600748006850F00200F1
:10352000054908600448006810F00C000828F9D12B
:1035300002B0704700100240041002400000FFF883
:10354000FFFFF6FE0810024008ED00E000200240F8
:1035500010B5074979441831064C7C44163404E010
:103560000A68081D511888470146A142F8D110BDCC
:103570000800000028000000DFF9FFFFB400000091
:1035800090000020000000001BF6FFFF90000000EC
:1035900038010000000000200000000000F009F8E1
:1035A000002801D0FFF7D4FF0020FEF7FDFA00F05D
:1035B00002F80120704700F001B8000007463846C5
:1035C00000F002F8FBE7000080B5C046C046024AA2
:1035D00011001820ABBEFBE726000200014880471F
:1035E00001480047F9330008ED350008C046C046E1
:1035F000C046C046FFF7D2FFFFF782BDFFF781BD8F
:10360000FFF780BDFFF77FBDFFF77EBDFFF77DBDF4
:10361000FFF77CBDFFF77BBDFFF77ABDFFF7FEBF6D
:10362000FFF7FEBFFFF7FEBFFFF7FEBFFFF7FEBFCE
:10363000FFF76FBDFFF7FEBFFFF7FEBFFFF78BBDC4
:10364000FFF7FABDFFF7FEBFFFF7FEBFFFF7FEBFB4
:10365000FFF7FEBFFFF7FEBFFFF7FEBFFFF7FEBF9E
:10366000FFF7FEBFFFF7FEBFFFF7FEBFFFF7FEBF8E
:10367000FFF7FEBFFFF7FEBFFFF727BEFFF7FEBF56
:10368000FFF7FEBFFFF7FEBFFFF7FEBFFFF7FEBF6E
:10369000FFF7FEBFFFF7FEBFFFF7FEBFFFF7FEBF5E
:1036A000FFF7FEBFFFF7FEBFFFF7FEBFFFF7FEBF4E
:1036B000FFF7FEBFFFF7FEBFFFF7FEBFFFF74EBEEF
:1036C000FFF7FEBFFFF7FEBF00000000010203048A
:1036D000010203040607080921B0726891FE8E40BA
:1036E0002DB29DEFA7609F402DB29DEFA7609F4038
:1036F00039B4C876BE98824085EB51B81E0530407B
:1037000085EB51B81E05304085EB51B81E053040A1
:1037100085EB51B81E053040A8C64B3789C14E40D5
:103720000E4FAF946588A33FA4AA09A2EE03B03F51
:10373000A4AA09A2EE03B03F000000000000F03F81
:103740000000000000BD9F400204060808000002BF
:0C3750000020000C0108FF070000000032
:04000005080035EDCD
:00000001FF
